:020000040000FA
:100000000C9452050C947A050C947A050C947A059C
:100010000C947A050C947A050C947A050C947A0564
:100020000C947A050C947A050C947A050C947A0554
:100030000C947A050C947A050C947A050C947A0544
:100040000C94BB280C947A050C9489280C94632892
:100050000C947A050C947A050C947A050C947A0524
:100060000C9405290C947A0500000000003E5B4FBB
:100070005B3E3E6B4F6B3E1C3E7C3E1C183C7E3C08
:10008000181C577D571C1C5E7F5E1C00183C180016
:10009000FFE7C3E7FF0018241800FFE7DBE7FF30A6
:1000A000483A060E2629792926407F050507407F14
:1000B00005253F5A3CE73C5A7F3E1C1C08081C1C87
:1000C0003E7F14227F22145F5F005F5F06097F017D
:1000D0007F006689956A606060606094A2FFA29468
:1000E00008047E040810207E201008082A1C080836
:1000F0001C2A08081E101010100C1E0C1E0C303884
:100100003E3830060E3E0E06000000000000005F84
:1001100000000007000700147F147F14242A7F2AA0
:100120001223130864623649562050000807030062
:10013000001C2241000041221C002A1C7F1C2A08AE
:10014000083E080800807030000808080808000011
:1001500060600020100804023E5149453E00427F85
:10016000400072494949462141494D331814127FD4
:100170001027454545393C4A494931412111090774
:100180003649494936464949291E000014000000F5
:1001900040340000000814224114141414140041C7
:1001A00022140802015909063E415D594E7C121184
:1001B000127C7F494949363E414141227F414141BC
:1001C0003E7F494949417F090909013E4141517337
:1001D0007F0808087F00417F41002040413F017FA8
:1001E000081422417F404040407F021C027F7F0470
:1001F00008107F3E4141413E7F090909063E4151B9
:10020000215E7F09192946264949493203017F01A8
:10021000033F4040403F1F2040201F3F4038403FA9
:10022000631408146303047804036159494D4300BF
:100230007F4141410204081020004141417F0402F6
:10024000010204404040404000030708002054548D
:1002500078407F284444383844444428384444286B
:100260007F385454541800087E090218A4A49C78BE
:100270007F0804047800447D40002040403D007F1A
:100280001028440000417F40007C047804787C08FA
:100290000404783844444438FC18242418182424CE
:1002A00018FC7C08040408485454542404043F44B3
:1002B000243C4040207C1C2040201C3C4030403CE2
:1002C00044281028444C9090907C4464544C440042
:1002D00008364100000077000000413608000201A6
:1002E0000204023C2623263C1EA1A161123A404092
:1002F000207A38545455592155557941225454780F
:1003000042215554784020545579400C1E527212A7
:100310003955555559395454545939555454580030
:1003200000457C410002457D420001457C407D1234
:1003300011127DF0282528F07C5455450020545496
:100340007C547C0A097F4932494949323A44444441
:100350003A324A4848303A4141217A3A424020787C
:10036000009DA0A07D3D4242423D3D4040403D3C7D
:1003700024FF2424487E4943662B2FFC2F2BFF09A2
:1003800029F620C0887E0903205454794100004496
:100390007D413048484A32384040227A007A0A0A81
:1003A000727D0D19317D2629292F282629292926F4
:1003B00030484D4020380808080808080808382F39
:1003C00010C8ACBA2F102834FA00007B00000814C3
:1003D0002A142222142A14085500550055AA55AA99
:1003E00055AAFF55FF55FF000000FF00101010FF39
:1003F00000141414FF001010FF00FF1010F010F094
:10040000141414FC001414F700FF0000FF00FF1484
:1004100014F404FC141417101F10101F101F1414D0
:10042000141F00101010F0000000001F101010101A
:100430001F10101010F010000000FF10101010100E
:1004400010101010FF10000000FF140000FF00FF4C
:1004500000001F10170000FC04F4141417101714E8
:1004600014F404F40000FF00F7141414141414140A
:10047000F700F7141414171410101F101F1414147D
:10048000F4141010F010F000001F101F0000001FE7
:1004900014000000FC140000F010F01010FF10FF1A
:1004A000141414FF141010101F00000000F010FFAF
:1004B000FFFFFFFFF0F0F0F0F0FFFFFF0000000093
:1004C00000FFFF0F0F0F0F0F3844443844FC4A4A17
:1004D0004A347E02020606027E027E0263554941CC
:1004E000633844443C04407E201E2006027E020203
:1004F00099A5E7A5991C2A492A1C4C7201724C3017
:100500004A4D4D303048784830BC625A463D3E49ED
:100510004949007E0101017E2A2A2A2A2A44445F91
:10052000444440514A444040444A51400000FF0185
:1005300003E080FF000008086B6B08361236243693
:10054000060F090F060000181800000010100030F8
:1005500040FF0101001F01011E00191D1712003C80
:100560003C3C3C0000000000000103070F1F3F7FE0
:100570000080C0E0F0F8FCFE00000000240027002E
:100580002A00DB40A4A62EAF2000A1C8D300408DD6
:10059000AED580A800000000250028002B00000038
:1005A000600000000000000000000000000000E00B
:1005B0000000000000000000000000000001E0005A
:1005C00000000000000000000000000001F000003A
:1005D000000000000000000000000003F000000028
:1005E0000000000000000000000007F00000000014
:1005F00000000000000000000007F80000000000FC
:1006000000000000000000000FF800000003C00020
:100610007E000001E0007F0FF800000003C000FE34
:10062000000001E000FFEFF800000003C000FE0042
:100630000001E000FFFFF800000003C000F0000030
:10064000000F007FFE7FC0000003C000F00000002C
:100650000F003FFE7FF83FF1FBCFFCFEF3BC3DEF08
:10066000E01FFE7FFF7FFBFFDFFEFEFFBC3DEFE0F4
:100670001FC6FFFF7FFBFFDFFEFEFFBC3DEFE00F6D
:10068000E3C7FE787BC3DE1EF0FFBC3DEF0007FF33
:1006900087FC787BC3DE1EF0F83C3DEF0001FFFFD6
:1006A000F0007BC3C01EF0F03C3DEF0001F37FE0A3
:1006B0003FFBC3CFFEF0F03C3DEF0003E33F807F04
:1006C000FBC3DFFEF0F03C3DEF0007E73C00787B2A
:1006D000C3DE1EF0F03C3DEF0007FFBE00787BC399
:1006E000DE1EF0F03C3DEF0007FFFE00787BC3DE2E
:1006F0001EF0F03C3DEF000FFFFE007FFBFFDFFE32
:10070000F0F03FFDEFE00FFFFF007FFBFFDFFEF0AB
:10071000F03FFDEFE00FF9FF003E79F9CF9EF0F0DA
:100720001F3DE7E01FF1FF00000000000000000097
:100730000000001F80FF007FFFFFFFFFFFFFFFFFA4
:10074000FFE01C007F007FFFFFFFFEB46D888D1867
:10075000E000001F007FFFFFFFFE95AD7DB577E055
:1007600000000F007FFFFFFFFEA5AD9D8D19E0008B
:100770000006007FFFFFFFFEB5ADEDB57EE0000097
:100780000000000180000000000000000000038065
:1007900000000000000000000007C0000000000092
:1007A0000000000007C00000000000000000000F73
:1007B000C00000000000000000001FE0000000007A
:1007C00000000000001FE00000000000000000002A
:1007D0003FE00000000000000000003FF0000000CB
:1007E0000000000000007FF0000000000000001F7B
:1007F000F87FF0000000000000003FFE7FF00000E6
:1008000000000000003FFF7FF0000000000000003B
:100810001FFFFBE0000000000000000FFFF9FFC019
:100820000000000000000FFFF9FFF80000000000CA
:100830000007FFF1FFFF00000000000003FC73FF52
:10084000FF80000000000001FE3FFFFF800000006D
:10085000000000FF1E0FFF000000000000007FFEF0
:100860001FFC000000000000003FFFFFF800000038
:10087000000000000FDFFFE0000000000000001F8C
:1008800019FFC0000000000000003F3CFF00000016
:1008900000000000007E7CF8000000000000000066
:1008A0007FFE7C0000000000000000FFFFFC000055
:1008B000000000000000FFFFFE000000000000003C
:1008C00000FFFFFE0000000000000001FFEFFE003F
:1008D00000000000000001FFCFFE0000000000004B
:1008E0000003FF07FE0000000000000003FC07FEFD
:1008F0000000000000000003F003FE000000000004
:100900000000018000FE0000000000000000000068
:100910007E000000000000000000003E000000001B
:100920000000000000000C00000000000007800034
:10093000FC000003C0000000078001FC000003C0B1
:10094000000000078001FC000003C00000000780D9
:1009500001E00000001E000000078001E000000030
:100960001E007FE3F79FF9FDE7787BDFC0FFF7FF0D
:10097000BFFDFDFF787BDFC0FFF7FFBFFDFDFF7808
:100980007BDFC0F0F787BC3DE1FF787BDE00F0F74E
:1009900087BC3DE1F0787BDE0000F787803DE1E039
:1009A000787BDE007FF7879FFDE1E0787BDE00FF4C
:1009B000F787BFFDE1E0787BDE00F0F787BC3DE123
:1009C000E0787BDE00F0F787BC3DE1E0787BDE007D
:1009D000F0F787BC3DE1E0787BDE00FFF7FFBFFD6D
:1009E000E1E07FFBDFC0FFF7FFBFFDE1E07FFBDF62
:1009F000C07CF3F39F3DE1E03E7BCFC000000000F0
:100A000000000000000000FFFFFFFFFFFFFFFFFFEF
:100A1000FFC0FFFFFFFFFD68DB111A31C0FFFFFFC2
:100A2000FFFD2B5AFB6AEFC0FFFFFFFFFD4B5B3B57
:100A30001A33C0FFFFFFFFFD6B5BDB6AFDC0466141
:100A4000696C656420746F20626F6F7420564C353A
:100A5000334C305800000000002300260029000419
:100A60000404040404040402020202020203030355
:100A7000030303010204081020408001020408104F
:100A800020010204081020000000080002010000FC
:100A900003040700000000000000002200FF210006
:100AA000242AA73311241FBECFEFD8E0DEBFCDBF6D
:100AB00012E0A0E0B1E0E4E3FFE602C005900D9291
:100AC000A23CB107D9F726E0A2ECB2E001C01D922A
:100AD000A532B207E1F715E0C1E5D5E004C02197E2
:100AE000FE010E944F36C035D107C9F70E94B82ACF
:100AF0000C948D370C940000CF93DF9300D000D07E
:100B0000CDB7DEB719821A821B821C8289819A8135
:100B1000AB81BC818A3F9105A105B10568F4000055
:100B200089819A81AB81BC810196A11DB11D898308
:100B30009A83AB83BC83EACF80E00F900F900F9035
:100B40000F90DF91CF9108954F925F926F927F92B5
:100B50008F929F92AF92BF92CF92DF92EF92FF92CD
:100B60000F931F93CF93F9010FEF1FEF98010083AD
:100B70001183228333834A015B01B3E0B694A794C7
:100B800097948794BA95D1F76A017B0127E0C22236
:100B9000DD24EE24FF2495018401C0E00630110518
:100BA0002105310508F041C0C1113FC0DC01A00F93
:100BB000B11F6C91412C512C320180169106A20676
:100BC000B30649F470E00C2C02C0759567950A9441
:100BD000E2F726013701462F50E060FF17C0B90148
:100BE000A801A3E0440F551F661F771FAA95D1F7F0
:100BF000440E551E661E771E4082518262827382A9
:100C0000C1E00F5F1F4F2F4F3F4FC8CFBA017595FF
:100C100067954FEF441A540A640A740A48E0441670
:100C2000510461047104B9F6ECCFCF911F910F917B
:100C3000FF90EF90DF90CF90BF90AF909F908F90FC
:100C40007F906F905F904F90089508950895089554
:100C5000AF92BF92CF92DF92EF92FF920F931F93CA
:100C6000CF93DF936C017B018B01040F151FEB0108
:100C70005E01AE18BF08C017D10759F06991D601BF
:100C8000ED91FC910190F081E02DC6010995892B31
:100C900079F7C501DF91CF911F910F91FF90EF90F0
:100CA000DF90CF90BF90AF900895FC01538D448D9D
:100CB000252F30E0842F90E0821B930B541710F007
:100CC000CF96089501970895FC01918D828D981714
:100CD00061F0A28DAE0FBF2FB11D5D968C91928DEC
:100CE0009F5F9F73928F90E008958FEF9FEF08951D
:100CF000FC01918D828D981731F0828DE80FF11DE6
:100D0000858D90E008958FEF9FEF0895FC01918D00
:100D1000228D892F90E0805C9F4F821B91098F73F9
:100D2000992708958AE893E00E94860621E0892B9E
:100D300009F420E0822F089580E090E0892B29F0CB
:100D40000E94920681110C9400000895FC01A48D6C
:100D5000A80FB92FB11DA35ABF4F2C91848D90E0DD
:100D600001968F739927848FA689B7892C93A089C0
:100D7000B1898C91837080648C93938D848D98134A
:100D800006C00288F389E02D80818F7D80830895DD
:100D9000EF92FF920F931F93CF93DF93EC0181E0CB
:100DA000888F9B8D8C8D98131AC0E889F989808172
:100DB00085FF15C09FB7F894EE89FF896083E889A5
:100DC000F98980818370806480839FBF81E090E097
:100DD000DF91CF911F910F91FF90EF900895F62E24
:100DE0000B8D10E00F5F1F4F0F731127E02E8C8DBE
:100DF0008E110CC00FB607FCFACFE889F989808103
:100E000085FFF5CFCE010E94A606F1CFEB8DEC0F4A
:100E1000FD2FF11DE35AFF4FF0829FB7F8940B8F1F
:100E2000EA89FB8980818062CFCFCF93DF93EC0189
:100E3000888D8823B9F0AA89BB89E889F9898C91C2
:100E400085FD03C0808186FD0DC00FB607FCF7CF7E
:100E50008C9185FFF2CF808185FFEDCFCE010E947E
:100E6000A606E9CFDF91CF910895833081F028F471
:100E7000813099F08230A9F008958730A9F0883048
:100E8000C9F08430B1F4809180008F7D03C08091DF
:100E900080008F7780938000089584B58F7784BD1C
:100EA000089584B58F7DFBCF8091B0008F778093BC
:100EB000B00008958091B0008F7DF9CF1F93CF933C
:100EC000DF93282F30E0F901E957F54F8491F901BC
:100ED000ED58F54FD491F901E15AF54FC491CC2367
:100EE000A9F0162F81110E943507EC2FF0E0EE0FCC
:100EF000FF1FEC56FA4FA591B4918FB7F894EC917F
:100F0000111108C0D095DE23DC938FBFDF91CF9104
:100F10001F910895DE2BF8CFCF93DF9390E0FC0173
:100F2000ED58F54F2491815A954FFC018491882307
:100F3000D1F090E0880F991FFC01E858FA4FA59175
:100F4000B491FC01EC56FA4FC591D49161110EC0D9
:100F50009FB7F8948C91E22FE0958E238C93288193
:100F6000E223E8839FBFDF91CF9108958FB7F89474
:100F7000EC91E22BEC938FBFF6CF3FB7F8948091C2
:100F8000770390917803A0917903B0917A0326B505
:100F9000A89B05C02F3F19F00196A11DB11D3FBFB1
:100FA000BA2FA92F982F8827BC01CD01620F711D80
:100FB000811D911D42E0660F771F881F991F4A957A
:100FC000D1F708958F929F92AF92BF92CF92DF9206
:100FD000EF92FF924B015C010E94BD076B017C0107
:100FE0000E94BD076C197D098E099F09683E7340F8
:100FF00081059105A8F321E0821A9108A108B108A2
:1010000088EEC80E83E0D81EE11CF11C8114910407
:10101000A104B10429F7FF90EF90DF90CF90BF902B
:10102000AF909F908F900895EF92FF920F931F9330
:10103000CF93DF93EC01EC80FD806E157F050CF003
:1010400070C057FF04C0240F351F50E040E08E8170
:101050009F81FA01E20FF31F8E179F071CF49C017A
:10106000241B350B121613060CF05BC0922F842F35
:101070008695869586958E9DD0018F9DB00D112405
:101080006A0F7B1FAF8DB8A1A60FB71F477049F13C
:1010900088E0841B482F682F70E0FB01E059FA4F6D
:1010A000E491281708F063C0621B71092FEF30E04C
:1010B00002C0359527956A95E2F7E22301301105C4
:1010C00039F0B0F10230110561F58C91E82702C0CA
:1010D0008C91E82BEC93941720F12C813D81A20F89
:1010E000B31FE92FE41BE83078F00230110521F539
:1010F0008E2F9C9190959C932C813D81A20FB31FC4
:1011000088508830B0F7E770EE2359F0F0E0E859E6
:10111000FA4FE49101301105F9F010F10230110598
:1011200019F1DF91CF911F910F91FF90EF900895EA
:10113000E0958C91E823CECF81E00115110509F4EB
:1011400080E081959E2F8C932C813D81A20FB31F4F
:1011500098509830C0F7D7CF8C91E82BEC93E1CF23
:10116000E0958C91E823FACF8C91E827F7CF0130F6
:10117000110509F4ADCFE0F20230110509F4A5CF55
:10118000AE0DBF1DAECF0F931F93CF93DF9377FFAD
:1011900004C0260F371F70E060E0DC011496CD918B
:1011A000DC91FB01E20FF31FCE17DF071CF49E0159
:1011B000261B370B121613064CF5FA0157FD37960E
:1011C000A3E0F595E795AA95E1F7EC9FD001ED9F97
:1011D000B00DFC9FB00D11246A0F7B1FDC015F96E0
:1011E000ED91FC91E60FF71F4770552781E090E0E5
:1011F00001C0880F4A95EAF7482F0130110559F0D0
:10120000A8F02E0F3F1F02301105E1F0DF91CF91C2
:101210001F910F9108952E0F3F1FE217F307B1F3AF
:101220008191DF011197842B8C93F7CF80952E0F3E
:101230003F1FE217F30751F39191DF0111979823B4
:101240009C93F7CFE217F30709F38191DF01119720
:1012500084278C93F7CF0F931F93FA01DC015696E6
:101260004C9156974230E9F04330A1F1413061F59D
:1012700014964D915C91DA01AE1BBF0BFD01E21B90
:10128000F30B77FD0BC0DC0116964D915C91641752
:10129000750724F4AB01BF010E94C3081F910F9191
:1012A000089514964D915C91DA01A61BB70BBD0110
:1012B00061507109DC0116964D915C91DA01AE1B0B
:1012C000BF0BFD01E21BF30B77FDE8CFAF010E94DE
:1012D0001408E4CF16964D915C91DA01A61BB70B6A
:1012E000BD0161507109CDCF0F931F93FA01DC014D
:1012F00056964C9156974230A9F0433091F14130C7
:1013000019F514964D915C91DA01AE1BBF0BFD01EE
:101310003197F7FD04C0AB01BF010E9414081F9173
:101320000F91089514964D915C91DA01A61BB70BAD
:10133000BD01DC0116964D915C91DA01AE1BBF0B2D
:10134000FD013197621B730BF7FDE9CFDC011696A7
:101350004D915C91E417F50714F7AF010E94C308A3
:10136000DECF16964D915C91DA01A61BB70BBD013D
:10137000621B730BCECFFC0177FD64C08085918525
:10138000681779070CF05EC057FD5CC082859385B5
:10139000481759070CF056C086898230B1F0833067
:1013A00029F1813041F484819581841B950BAB0137
:1013B000BC01615071092130310509F108F443C0C5
:1013C0002230310509F463C0089584819581DC01E0
:1013D000A61BB70BBD016150710986819781DC01A5
:1013E000A41BB50BAD0141505109E5CF8681978112
:1013F000861B970BBA01AC0141505109DCCFCA01E1
:1014000057FD0796A3E095958795AA95E1F7A481E6
:10141000B5818A9F90018B9F300D9A9F300D1124CA
:10142000620F731F078CF0A1E02DE60FF71F4770C6
:10143000552721E030E001C0220F4A95EAF780816C
:10144000822B80830895CA0157FD079633E0959556
:1014500087953A95E1F7A481B5818A9F90018B9F8A
:10146000300D9A9F300D1124620F731F078CF0A16D
:10147000E02DE60FF71F4770552781E090E001C08F
:10148000880F4A95EAF7809590818923DACFCA01BF
:1014900057FD079623E0959587952A95E1F7A48156
:1014A000B5818A9F90018B9F300D9A9F300D11243A
:1014B000620F731F078CF0A1E02DE60FF71F477036
:1014C000552721E030E001C0220F4A95EAF78081DC
:1014D0008227B7CF08958EBD00000DB407FEFDCF63
:1014E0008EB508958CBD9DBD08950895FC0163706F
:1014F000668B8481958126813781613039F0633034
:1015000029F0918780873387228708953187208744
:101510009387828708952F923F924F925F926F92A6
:101520007F928F929F92AF92BF92CF92DF92EF9273
:10153000FF920F931F93CF93DF93CDB7DEB76A97D8
:101540000FB6F894DEBF0FBECDBF9A8F898F7A8316
:1015500069834A01D22E18870F833701BC2CDC0126
:1015600059962D913C915A972115310509F015C1D5
:1015700018968D919C911997681779070CF0D7C12F
:101580001A968D919C91481759070CF0D0C14C2C9C
:10159000512CB6E0CB9E600D711D11247C876B87AA
:1015A000161617060CF0C3C1EA2DF0E0FA87E9879A
:1015B00093E0EE0FFF1F9A95E1F7F88BEF87CF01CD
:1015C000840F951F181619060CF0B1C1A98DBA8D9C
:1015D00058968C91811104C0BFEABD1508F4D394CC
:1015E000A98DBA8DED91FC9111970284F385E02DC0
:1015F000CD010995B5E0DB9EC0011124E981FA8196
:10160000FC83EB83312C212C9C0128593F4F388FD0
:101610002F8B4A2D50E05E8B4D8BEF89F88DE20DBC
:10162000F31D44919E828D82D12CC12C69817A81D7
:10163000620D731D7A8B698B842F90E09C8B8B8B52
:10164000E98DFA8DA081B18140FF82C0F1E0BF1227
:101650006FC0AF126DC01C96ED91FC912F81388543
:10166000A4014C0D5D1D69897A89898D9A8D099532
:10167000EB89FC89F595E7954E2F5FEFC51AD50AE2
:101680006D817E818D899E89680F791F7E836D8330
:1016900098E0C916D10481F6AFEF2A1A3A0AEB8115
:1016A000FC81E40DF51DFC83EB83F5E02F1631047E
:1016B00009F0B3CF2F81388526153705B9F0A98DEC
:1016C000BA8DED91FC91B1E0BB1257C0AB1255C081
:1016D00069817A816B5F7F4F0088F189E02D8301FA
:1016E00028E030E0A401898D9A8D0995A98DBA8DE5
:1016F000ED91FC9111970688F789E02DCD016A964E
:101700000FB6F894DEBF0FBECDBFDF91CF911F9112
:101710000F91FF90EF90DF90CF90BF90AF909F9090
:101720008F907F906F905F904F903F902F90099493
:101730001E96ED91FC91EF80F88409851A8592013F
:101740004D815E816B817C81898D9A8D099590CFC9
:101750002F8138852615370509F48ACF31E0B31279
:1017600007C0A31205C01C96ED91FC91930178CFA0
:101770001E96ED91FC917301E0CF6B857C85641919
:1017800075090684F785E02D73010F85188992018C
:10179000A401898D9A8D0995A9CFF9013496949168
:1017A000329745915491D91AB7E0DB9E400D511DF7
:1017B0001124F901259134913C8B2B8BFA01259052
:1017C0003490FA013296749031963491398B329676
:1017D00064903196449041E04C1518F04A1508F099
:1017E0007FC0662D062C000C770B7C836B83842DC9
:1017F000042C000C990B9E838D83A98DBA8DED91DD
:10180000FC9111970284F385E02DCD010995512CAF
:10181000D12CC12CEA2DF0E0FA87E9872B2D30E09E
:101820003C872B87A401440D511D47FC5A95588FC6
:101830004F8B69817A81660D711D67FC7A957E8771
:101840006D877989C71608F051CF2C2D30E04D8176
:101850005E81420F531FA985BA854A9FC0014B9FE5
:10186000900D5A9F900D1124FC01E80DF91DF88B85
:10187000EF87852D612C4F89588D420F531F5E8B4A
:101880004D8B671408F050C044244394480E877071
:1018900041F4C1010196EB89FC89E20DF31DD4905E
:1018A0001C01D7FE19C0A98DBA8DED91FC91662D52
:1018B00070E0B1E0BB1219C0AB1217C02D853E8598
:1018C000620F731F0484F585E02D2F8138854D89C3
:1018D0005E89898D9A8D0995DD0C6394842DD1CF15
:1018E0001E821D821C821B8288CF4B815C81640F0B
:1018F000751FAB85BC856A9FC0016B9F900D7A9F59
:10190000900D112469817A81680F791F0684F7850B
:10191000E02DEF80F88409851A859D014F8558894F
:10192000898D9A8D0995D8CF570CC3948ACF6A9622
:101930000FB6F894DEBF0FBECDBFDF91CF911F91E0
:101940000F91FF90EF90DF90CF90BF90AF909F905E
:101950008F907F906F905F904F903F902F90089561
:101960008F929F92AF92CF92EF92FF920F931F931D
:10197000CF93DF93EC01262F898D9A8D009709F084
:1019800051C06A30D1F41D861C868D8948E0849F41
:10199000900111248E859F85820F931F9F878E87CC
:1019A00081E090E0DF91CF911F910F91FF90EF9038
:1019B000CF90AF909F908F9008956D3089F3CC8831
:1019C000AD888F898823C1F08C859D8536E0C39EC4
:1019D000800D911D1124488559854817590764F4D5
:1019E0004E855F851D861C8638E0A39EC0011124AC
:1019F000840F951F9F878E87EA88FB88088919893D
:101A00004E855F856C857D85CE010E948B0A2C8971
:101A10008C859D8546E0249F800D911D11249D8716
:101A20008C87BECF6A3069F41D861C86FC0138960F
:101A3000E4912D898E859F85E29F800D911D112453
:101A4000ADCF6D3009F4ACCFFC01349634916317FF
:101A500008F4A6CF3296E491E61708F4A1CFFC0172
:101A6000329685909490462F431B342F47E0349F45
:101A7000800C911C1124F401329634913196E4913A
:101A80003323A9F1EE2399F1CC88F4013596E49142
:101A9000AD884F89442301F10E2E000CFF0BE30F9C
:101AA000F11DCE9EA001CF9E500D11246C857D8529
:101AB000460F571F68857985641775076CF44E8546
:101AC0005F851D861C86FC013896E491AE9E400D14
:101AD000511D11245F874E87EA88FB880889198980
:101AE0004E855F856C857D85CE010E948B0AF40151
:101AF0003496E4912C898C859D85E29F800D911D03
:101B000011248DCF6F927F928F929F92AF92BF924E
:101B1000CF92DF92EF92FF920F931F93CF93DF93B9
:101B2000EC016B015A0139014801E881F981028415
:101B3000F385E02D0995E881F9810288F389E02D8C
:101B400087019301A501B601CE010995A501480DB4
:101B5000591D41505109E881F9810288F389E02D2E
:101B60009301B601CE010995E881F9810088F189D8
:101B7000E02D9401A501B601CE010995C60CD71C34
:101B8000B60161507109E881F9810088F189E02D81
:101B90009401A501CE010995E881F9810688F789AC
:101BA000E02DCE01DF91CF911F910F91FF90EF902B
:101BB000DF90CF90BF90AF909F908F907F906F906D
:101BC00009946F927F928F929F92AF92BF92CF9221
:101BD000DF92EF92FF920F931F93CF93DF935C01FD
:101BE000EB016A01490138018701DC01ED91FC91AB
:101BF0006217730719F5641675062CF0962D872D5C
:101C00003A01C92ED82E9601261937092F5F3F4F6A
:101C1000048CF58DE02DA301BE01C5010995DF916E
:101C2000CF911F910F91FF90EF90DF90CF90BF90D9
:101C3000AF909F908F907F906F90089546155705B5
:101C400091F42617370724F0892D4B01C22FD82F86
:101C50009E01281939092F5F3F4F068CF78DE02D23
:101C6000A601B401DACF0284F385E02D0995D501F0
:101C7000ED91FC910488F589E02D83019401A60182
:101C8000BE01C5010995D501ED91FC910688F78942
:101C9000E02DC501DF91CF911F910F91FF90EF9043
:101CA000DF90CF90BF90AF909F908F907F906F907C
:101CB0000994EF92FF920F931F93DC011A960D91F6
:101CC0001C911B9718962D913C911997ED91FC91C1
:101CD00000A0F1A1E02D7B0150E040E070E060E069
:101CE00009951F910F91FF90EF9008954F925F9289
:101CF0006F927F928F929F92AF92BF92CF92DF921C
:101D0000EF92FF920F931F93CF93DF936C012B0100
:101D10005A0139014801DC01ED91FC910284F385FF
:101D2000E02D0995E201640C751CD601ED91FC9142
:101D3000C615D7055CF40088F189E02D8701940170
:101D4000A501BE01C60109952196EFCF0688F78946
:101D5000E02DC601DF91CF911F910F91FF90EF9081
:101D6000DF90CF90BF90AF909F908F907F906F90BB
:101D70005F904F9009948F929F92AF92BF92CF92B3
:101D8000DF92EF92FF920F931F93CF93DF93EC01BB
:101D90005B014A016901E881F9810284F385E02D44
:101DA000099595012C0D3D1D21503109E881F981DE
:101DB0000488F589E02D78018401A401B501CE01E4
:101DC0000995E881F9810688F789E02DCE01DF9138
:101DD000CF911F910F91FF90EF90DF90CF90BF9028
:101DE000AF909F908F9009948F929F92AF92BF92E5
:101DF000CF92DF92EF92FF920F931F93CF93DF93D7
:101E0000EC015B014A0169017801E881F9810284F2
:101E1000F385E02D0995C80CD91C860101501109E4
:101E2000E881F9810488F589E02D9501A401B501C7
:101E3000CE010995E881F9810688F789E02DCE0168
:101E4000DF91CF911F910F91FF90EF90DF90CF9096
:101E5000BF90AF909F908F900994EF92FF920F9355
:101E60001F93DC01ED91FC9100A0F1A1E02D0995FB
:101E70001F910F91FF90EF9008950F931F93DC0136
:101E8000ED91FC91068CF78DE02D09951F910F9136
:101E900008950F931F93DC01ED91FC91048CF58D57
:101EA000E02D09951F910F910895DC01ED91FC91B2
:101EB0000084F185E02D09943F924F925F926F92DA
:101EC0007F928F929F92AF92BF92CF92DF92EF92CA
:101ED000FF920F931F93CF93DF935C017B014A0125
:101EE0006901390187E0680E711C93E0759467946D
:101EF0009A95E1F72B01400E511E10E000E0312CC5
:101F0000D0E0C0E0CE0187709927330C892B59F4BB
:101F1000FE0183E0F595E7958A95E1F7E00FF11F63
:101F2000E80DF91D349037FE0AC021E030E0A7012A
:101F3000B5016C0F7D1F81EE95E00E94550F219633
:101F4000CC16DD06F9F68FEFE81AF80A060D171D14
:101F5000E414F504A9F6DF91CF911F910F91FF9042
:101F6000EF90DF90CF90BF90AF909F908F907F9039
:101F70006F905F904F903F9008952F923F924F92B5
:101F80005F926F927F928F929F92AF92BF92CF9209
:101F9000DF92EF92FF920F931F93CF93DF9300D0C6
:101FA00000D000D0CDB7DEB73C016A013E832D835F
:101FB000FC82EB825801A41AB50AB7FE03C0B194A3
:101FC000A194B1088D809E80861A970A97FE03C05F
:101FD0009194819491088A149B045CF0902F812F36
:101FE0000D811E819D838E839C2D8D2D6B01692F0C
:101FF000782F0C151D055CF09D818E817E836D838D
:10200000692F782F902F812F8601C92ED82E160187
:10201000201A310A2B012D813E81421A530A57FEA4
:1020200003C0519441945108710137FE03C03FEF42
:10203000E31AF30AF594E7948D819E81861797073A
:102040005CF5A1E0B0E0BA83A983C016D1064CF1DB
:10205000D301ED91FC910484F585E02D2B813C8129
:10206000A8016D817E818A149B041CF04D815E81E4
:10207000B801C3010995E418F508F7FE0AC02D81DF
:102080003E8189819A81280F391F3E832D83E20C7E
:10209000F31C0F5F1F4FD9CF2FEF3FEF3A832983F8
:1020A000D4CF26960FB6F894DEBF0FBECDBFDF911A
:1020B000CF911F910F91FF90EF90DF90CF90BF9045
:1020C000AF909F908F907F906F905F904F903F90D8
:1020D0002F900895089520910303260F3327331F6F
:1020E00021323105ECF420914C03FC0190E080E0BA
:1020F000243069F082E00895A09103032191AC019E
:102100004D515D4FA40FB52FB11D2C93019686172D
:1021100098F380910303680F6093030380E00895B0
:1021200081E0089510924C0381E080934B0310925C
:10213000460361E082E10E945E0761E083E10E9464
:102140005E07E9EBF0E080818E7F808380818D7F68
:10215000808388E48093B80085E48093BC00089570
:1021600010928903109288031092870310928603BD
:102170000E94921085E296E09093850380938403F9
:1021800086E296E090938303809382030895CF9331
:10219000DF9391E09093E2028823B9F0C091B800F8
:1021A000D091BA008091BC008A7B8093BC0060E033
:1021B00082E10E945E0760E083E10E945E070E9468
:1021C0009210D093BA00C093B800DF91CF910895D8
:1021D000E091890380918803E81730F4F0E0EE5A2B
:1021E000FC4F808190E008958FEF9FEF08959091CC
:1021F0008903809188032FEF3FEF981748F4E92F68
:10220000F0E0EE5AFC4F208130E09F5F909389030D
:10221000C90108958091880390918903891B990BC6
:102220000895CF92DF92EF92FF920F931F93CF9377
:10223000DF937C01CB018A0120918103222389F065
:10224000EB016B01C40ED51ECC15DD0569F069915B
:10225000D701ED91FC910190F081E02DC701099526
:10226000F3CF642F0E946B10C801DF91CF911F91B3
:102270000F91FF90EF90DF90CF900895CF93DF9371
:102280001F92CDB7DEB76983209181032223F9F035
:1022900020918603203258F021E030E0FC013383A6
:1022A000228390E080E00F90DF91CF91089580919C
:1022B0008703E82FF0E0EE53FD4F998190838F5F05
:1022C000809387038093860381E090E0ECCF61E008
:1022D000CE0101960E946B10F7CFCF92DF92EF9262
:1022E000FF920F931F93CF93DF93D091860381E0EA
:1022F000D13208F09CC0C09180030E94BD076B01E1
:102300007C0180914C0381116CC082E080934C036E
:1023100081E080934B038FEF80934A03109249032F
:10232000D0934803A2ECB2E0E6E2F3E080E0D813F9
:102330008DC01092470380914703CC0FC82BC093E8
:10234000470380914603813009F084C01092460310
:102350000E94BD076B017C01809147038093BB0005
:1023600080914E0390914F03A0915003B09151037F
:10237000892B8A2B8B2BA1F00E94BD0700914E0365
:1023800010914F0320915003309151036C197D0936
:102390008E099F09061717072807390708F442C056
:1023A0008091BC0083FDD8CF85EC8093BC000E9457
:1023B000BD076B017C0180914C03823009F44CC055
:1023C00080914A038F3F09F469C080914A038032AB
:1023D00009F466C080914A03803309F463C084E045
:1023E00026C080914E0390914F03A0915003B0916D
:1023F0005103892B8A2B8B2B09F483CF0E94BD07B5
:1024000000914E0310914F032091500330915103DE
:102410006C197D098E099F090617170728073907C8
:1024200008F06FCF80914D030E94C71085E0109295
:1024300087031092860310928103DF91CF911F9141
:102440000F91FF90EF90DF90CF9008959D91919321
:102450008F5F6DCF85EEA9CF80914E0390914F0392
:10246000A0915003B0915103892B8A2B8B2B09F437
:10247000A2CF0E94BD0700914E0310914F032091FF
:102480005003309151036C197D098E099F0906177D
:1024900017072807390708F08ECFC4CF80E0C7CFD1
:1024A00082E0C5CF83E0C3CFEF92FF920F931F93DB
:1024B000CF93DF937C01C62F8091FE059091FF059D
:1024C000009709F459C02091020631E0309381034E
:1024D000209380031092870310928603DC01ED9114
:1024E000FC910190F081E02D60E009958701EE24D8
:1024F000E394F12CD1E0C1508091FE059091FF054D
:10250000CF3F91F1B0E2EB16F104D8F00E946D11CB
:102510008091FE059091FF0520910206D0938103E2
:10252000209380031092870310928603DC01ED91C3
:10253000FC910190F081E02D60E00995EE24E39498
:10254000F12C8091FE059091FF05F8016491DC016A
:10255000ED91FC910190F081E02D0995BFEFEB1A10
:10256000FB0A0F5F1F4FC7CFDF91CF911F910F91D4
:10257000FF90EF900C946D11E0910E06F0910F0614
:102580009081809114068095892380838701C150B2
:1025900008F438C0F80184912091FC053091FD05C4
:1025A000232B29F00E946B0A0F5F1F4FF0CF28E00A
:1025B00030E040E8E0910A06F0910B069091120697
:1025C000582F5423D9F05081952B9083E0910C061D
:1025D000F0910D06908150911306952B9083E09118
:1025E0000C06F0910D06508190911306909595235D
:1025F0009083469521503109E9F6D6CF50819095C8
:102600009523E3CFDF91CF911F910F91FF90EF9032
:1026100008951F93CF93DF93EC018D8D9E8D0097CE
:1026200021F1162F29A131E03093810320938003FB
:102630001092870310928603DC01ED91FC910190CA
:10264000F081E02D60E009958D8D9E8DDC01ED918E
:10265000FC910190F081E02D612F09958D8D9E8D6B
:10266000DF91CF911F910C946D11ADA5BEA59C91EA
:102670008BA9809589238C938B8D9C8D892B31F030
:10268000862FDF91CF911F910C946B0A28E030E0E8
:1026900080E8A9A5BAA599A9462F4823C1F04C9175
:1026A000942B9C93ABA5BCA59C914AA9942B9C937D
:1026B000ABA5BCA54C919AA9909594239C93869523
:1026C0002150310931F7DF91CF911F9108954C913D
:1026D00090959423E6CFDF92EF92FF920F931F9392
:1026E000CF93DF938091FE059091FF05892B09F42C
:1026F00098C0209116063091170640911806509107
:10270000190660E074E284EF90E00E9413362051D5
:1027100031094109510956954795379527952093D9
:10272000B80065E08BE99AE00E9454126091E505DB
:10273000615081EE95E00E9409132091E7053091E8
:10274000E805C901079697FD079633E095958795AB
:102750003A95E1F72091E5053091E605829F8001E9
:10276000839F100D929F100D1124C0910006D091EF
:1027700001068091FE059091FF050C0F1D1F00972B
:1027800009F48FC02091020631E030938103209339
:1027900080031092870310928603DC01ED91FC9177
:1027A0000190F081E02D60E40995EE24E394F12C92
:1027B000DD24D3948091FE059091FF050C171D0731
:1027C00009F446C0B0E2EB16F104D8F00E946D1196
:1027D0008091FE059091FF0520910206D092810321
:1027E000209380031092870310928603DC01ED9101
:1027F000FC910190F081E02D60E40995EE24E394D2
:10280000F12C8091FE059091FF056991DC01ED911D
:10281000FC910190F081E02D0995BFEFEB1AFB0AC6
:10282000C9CF8091FC059091FD05892B31F08091F5
:102830001F06909120060E94720AE0911006F09106
:10284000110690818091150680958923808369CF38
:102850000E946D118091FE059091FF05892B09F46E
:1028600061C020911A0630911B0640911C065091C0
:102870001D0660E074E284EF90E00E941336205160
:102880003109410951095695479537952795209368
:10289000B800DF91CF911F910F91FF90EF90DF90E3
:1028A0000895E0910E06F0910F0680819091140634
:1028B000892B80830C171D0769F289912091FC05F3
:1028C0003091FD05232B19F00E946B0AF3CF28E00D
:1028D00030E040E8E0910A06F0910B069091120674
:1028E000582F5423D9F05081952B9083E0910C06FA
:1028F000F0910D06908150911306952B9083E091F5
:102900000C06F0910D065081909113069095952339
:102910009083469521503109E9F6CCCF50819095AE
:102920009523E3CFE0911006F091110680819091FC
:102930001506892B8083ADCF1F93CF93DF93EC01D6
:10294000162F8D8D9E8D892BB1F12DA93EA94FA9F2
:1029500058AD60E074E284EF90E00E94133620519D
:102960003109410951095695479537952795209387
:10297000B80066EA111167EACE010E9409138D8D35
:102980009E8D892B41F129AD3AAD4BAD5CAD60E038
:1029900074E284EF90E00E9413362051310941091E
:1029A000510956954795379527952093B800DF91A3
:1029B000CF911F9108958B8D9C8D892B21F08EAD29
:1029C0009FAD0E94720AEFA5F8A990818CA980950D
:1029D00089238083CECFEFA5F8A980819CA9892B7C
:1029E0008083E5CF8F929F92AF92BF92CF92DF927A
:1029F000EF92FF920F931F93CF93DF936A014801E9
:102A0000E70191E090938103809380031092870304
:102A100010928603E881F9810190F081E02DC701D1
:102A200009958C0C9D1CC814D90459F0E881F981D2
:102A30000190F081E02DD6016D916D01CE010995D7
:102A4000F2CFCE010E946D1190E080E0DF91CF9136
:102A50001F910F91FF90EF90DF90CF90BF90AF90BC
:102A60009F908F900895EF92FF920F931F93CF93B3
:102A7000DF9300D0CDB7DEB7FC01EF5BFE4F708176
:102A80003496E080F1804A83598302E010E020E030
:102A900030E0AE014F5F5F4F872F0E94F214892B09
:102AA00051F08CEE0F900F90DF91CF911F910F910D
:102AB000FF90EF90089580E0F5CFEF92FF920F9393
:102AC0001F93CF93DF931F92CDB7DEB7FC01EF5B6F
:102AD000FE4F70813496E080F180498301E010E080
:102AE00020E030E0AE014F5F5F4F872F0E94F2146D
:102AF000892B49F08CEE0F90DF91CF911F910F91B0
:102B0000FF90EF90089580E0F6CFEF92FF920F9341
:102B10001F93AB01FC01EB5BFE4FE080F1808F5B0C
:102B20009E4F06E010E020E030E060EBFC01808189
:102B30000E94F214892B31F08CEE1F910F91FF90BF
:102B4000EF90089580E0F9CF90E080E008954F92F3
:102B50005F926F927F928F929F92AF92BF92CF922D
:102B6000DF92EF92FF920F931F93CF93DF93D82FB3
:102B70006A01480181E080938103D0938003109221
:102B8000870310928603D701ED91FC910190F081AB
:102B9000E02DC7010995C7010E946D110E94BD0774
:102BA0002B013C0180914C03811166C0C82D81E04E
:102BB00080934C0380934B039FEF90934A031092B2
:102BC0004903980D909348038093470380914703EE
:102BD000DD0FD82BD093470380914603813009F055
:102BE00086C0109246030E94BD072B013C018091D4
:102BF00047038093BB0080914E0390914F03A091B7
:102C00005003B0915103892B8A2B8B2BA1F00E948A
:102C1000BD0700914E0310914F0320915003309156
:102C200051036419750986099709061717072807BC
:102C3000390708F442C08091BC0083FDD8CF85ECF1
:102C40008093BC000E94BD072B013C0180914C0386
:102C5000813009F44EC0809149038C1710F4C09163
:102C60004903E6E2F3E0A2E5B3E080E08C1751F11E
:102C700091919D938F5FFACF80914E0390914F0376
:102C8000A0915003B0915103892B8A2B8B2B09F40F
:102C900089CF0E94BD0700914E0310914F032091F0
:102CA0005003309151036419750986099709061775
:102CB00017072807390708F075CF80914D030E9448
:102CC000C710C0E010928903C09388038C0C9D1C30
:102CD000C814D90481F1D701ED91FC910284F385E8
:102CE000E02DC7010995F60181936F01F1CF85EEC3
:102CF000A7CF80914E0390914F03A0915003B091C4
:102D00005103892B8A2B8B2B09F4A0CF0E94BD077E
:102D100000914E0310914F032091500330915103C5
:102D200064197509860997090617170728073907CF
:102D300008F08CCFC2CF90E080E0DF91CF911F915F
:102D40000F91FF90EF90DF90CF90BF90AF909F904A
:102D50008F907F906F905F904F9008952F923F9249
:102D60004F925F926F927F928F929F92AF92BF929B
:102D7000CF92DF92EF92FF920F931F93CF93DF9347
:102D8000CDB7DEB72F970FB6F894DEBF0FBECDBF1D
:102D90009C878B876D875F874E87390117012801D4
:102DA0002F82388649865A8610E000E0EE24E394AC
:102DB000F12C0A151B0509F461C09E01295F3F4FE4
:102DC000B201A1018E859F850E94A4054F8158857F
:102DD00069857A854F3F2FEF52076207720709F422
:102DE0009CC0DB01CA018C549F4FAF4FBF4FE6E040
:102DF000B695A79597958795EA95D1F7880F991F6E
:102E0000880F991F87509E4F21E0FC01808191819E
:102E1000A281B381892B8A2B8B2B09F420E0FD85BD
:102E2000F2137BC01A012B0133E056944794379478
:102E300027943A95D1F7DB01CA0187709927AA2711
:102E4000BB2726E0221631044104510468F4F30143
:102E5000E20DF31D970102C0220F331F8A95E2F79E
:102E6000C9019081892B80831A012B013FEF231A1E
:102E7000330A430A530A0F5F1F4F9BCFB12CF40153
:102E80002082318242825382B1102DC0B3018B85E2
:102E90009C850E948515B82E811125C0EB85FC8587
:102EA000EB5BFE4FE080F180EB85FC85EF5BFE4F36
:102EB00006E010E020E030E0AE014F5F5F4F60EBD6
:102EC00080810E94A715892B11F09CEEB92EF30189
:102ED000DE011196C301069631912D91321320C067
:102EE000E817F907C9F78B2D2F960FB6F894DEBFB8
:102EF0000FBECDBFDF91CF911F910F91FF90EF904B
:102F0000DF90CF90BF90AF909F908F907F906F9009
:102F10005F904F903F902F9008952EECB22EAFCF40
:102F20008EECB82EE0CFCF92DF92EF92FF920F930C
:102F30001F93CF93DF9300D000D0CDB7DEB76A01E7
:102F4000FC01EB5BFE4FE080F1808F5B9E4F04E065
:102F500010E020E030E0AE014F5F5F4FFC01808168
:102F60000E94A71549815A8154274527542770E0AC
:102F700060E0762F652F542F44272B81422B762F2C
:102F8000652F542F44272C81422BF6014083518317
:102F900062837383892B71F480E00F900F900F9000
:102FA0000F90DF91CF911F910F91FF90EF90DF90E5
:102FB000CF9008958CEEF1CFCF92DF92EF92FF92F7
:102FC0000F931F93CF93DF9300D0CDB7DEB76A0185
:102FD000FC01EB5BFE4FE080F1808F5B9E4F02E0D7
:102FE00010E020E030E0AE014F5F5F4FFC018081D8
:102FF0000E94A71529813A81322723273227F6011B
:1030000031832083892B61F480E00F900F90DF9152
:10301000CF911F910F91FF90EF90DF90CF90089587
:103020008CEEF3CFEF92FF920F931F93CF93DF932A
:1030300000D0CDB7DEB78C017A016330710509F499
:1030400049C090F46130710509F162307105E1F118
:10305000F80181A992A9A3A9B4A9F701808391835A
:10306000A283B38380E049C06630710588F7AE0162
:103070004F5F5F4F64E60E94DC1781113EC02981DB
:1030800080E0922F990FB0E0A0E0E7CFAE014F5F54
:103090005F4F64E40E94DC1781112FC0998120E00A
:1030A000392F330FA90170E060E0232BD1F0F70135
:1030B0004083518362837383F80145AB56AB67ABA2
:1030C00070AF91E096A319C0FC0181AD92ADA3ADA4
:1030D000B4ADC3CFFC01FD9680819181A281B38103
:1030E000BCCFF80145A956A967A970ADF701408387
:1030F000518362837383F80116A20F900F90DF91C2
:10310000CF911F910F91FF90EF9008958F929F9212
:10311000AF92BF92CF92DF92EF92FF920F931F93E5
:10312000CF93DF9300D0CDB7DEB7962ED42E822E6C
:10313000FC01EF5BFE4FC0805C012BEBA21A2EEF6F
:10314000B20AF501E080F18001E010E020E030E01B
:10315000AE014E5F5F4F8C2D0E94A715892BA9F4FD
:103160002A812D2128292A83F501E080F1802983F5
:1031700001E010E020E030E0AE014F5F5F4F692DCD
:103180008C2D0E94F214892B81F08CEE0F900F9001
:10319000DF91CF911F910F91FF90EF90DF90CF9033
:1031A000BF90AF909F908F90089580E0EFCFEF9207
:1031B000FF920F931F93FC01EB5BFE4FE080F180C9
:1031C0008F5B9E4F01E010E020E030E0FC01808149
:1031D0000E94A715892B31F08CEE1F910F91FF9063
:1031E000EF90089580E0F9CFEF92FF920F931F9335
:1031F000CF93DF931F92CDB7DEB77C0100E041E0B3
:103200006BE0C7010E945D15182F40E06BE0C7011D
:103210000E945D15182BAE014F5F5F4F63E1C70140
:103220000E94D718812B0F5F9981977061F003304E
:1032300061F0882321F30F90DF91CF911F910F91BF
:10324000FF90EF9008950330B1F784EFF4CF9F9291
:10325000AF92BF92CF92DF92EF92FF920F931F93A4
:10326000CF93DF931F92CDB7DEB77C015B016A017C
:10327000922E198241E06FEF0E945D15182F40E0F9
:1032800060E0C7010E945D15182B40E06FEFC70199
:103290000E945D15182B992031F0A5016BECC70138
:1032A0000E94D718182B002341F0AE014F5F5F4FEB
:1032B0006EEEC7010E94D718182B41E06FEFC701CF
:1032C0000E945D15182B41E060E0C7010E945D156A
:1032D000182B40E06FEFC7010E945D1599819F7E1A
:1032E000F6019083812B0F90DF91CF911F910F9169
:1032F000FF90EF90DF90CF90BF90AF909F90089598
:103300000F931F93CF93DF931F92CDB7DEB78A0140
:10331000AE014F5F5F4F613081F060E50E94D718CA
:10332000811105C099819F5F990FF80190830F90DB
:10333000DF91CF911F910F91089560E7EFCFCF926A
:10334000DF92EF92FF921F93CF93DF931F92CDB73F
:10335000DEB77C0140E063E80E945D15182F811103
:1033600017C0D12CC12CAE014F5F5F4F63E8C7017E
:103370000E94D718182F898181110AC0111108C025
:103380008FEFC81AD80A88ECC816D10461F719EF74
:1033900041E063E8C7010E945D15812B0F90DF912A
:1033A000CF911F91FF90EF90DF90CF900895CF9233
:1033B000DF92EF92FF920F931F93CF93DF931F92B1
:1033C000CDB7DEB77C0110E000E06C018EECC80EDA
:1033D000D11CF6018081AE014F5F5F4F8430A9F4AC
:1033E00063E1C7010E94D7189981292F277098712E
:1033F00011F58823D9F00F90DF91CF911F910F9194
:10340000FF90EF90DF90CF90089564E1C7010E9494
:10341000D7188111F0CF998190FDEDCF0F5F1F4F2D
:10342000083C110531F00E947C05D3CF2430B1F760
:10343000E2CF89EFE0CF8AEFDECFCF93DF93EC01CD
:10344000462F416060E00E945D15811111C0CE01E0
:103450000E94D71981110CC0CE010E94F41881116D
:1034600007C040E060E0CE01DF91CF910C945D1584
:10347000DF91CF9108950F931F93CF93DF931F9206
:10348000CDB7DEB78B011982AE014F5F5F4F61E0B0
:103490000E94D718811116C0998194FB332730F907
:1034A000F801308393FB332730F9328392FB3327C3
:1034B00030F9318396FB222720F92383991F99271E
:1034C000991F94830F90DF91CF911F910F910895D1
:1034D0002F923F924F925F926F927F928F929F9224
:1034E000AF92BF92CF92DF92EF92FF921F93CF9352
:1034F000DF93CDB7DEB72B970FB6F894DEBF0FBEC4
:10350000CDBF6C011A011B861F821E82623009F03A
:103510006EC0AE01465F5F4F60E00E948019182FB9
:10352000811108C0AE01455F5F4F66E4C6010E948D
:10353000D718182FAA85B0E020E03FE24AE350E018
:103540000E9444362B013C0124EF420E21E0521E22
:10355000611C711CCB84D12CF12CE12C8FEFC81A8B
:10356000D80AE80AF80A98EE892E93E0992EA12C41
:10357000B12CC301B201A50194010E941336CA0106
:10358000B901A70196010E94EF356B017C01C301CF
:10359000B20120ED37E040E050E00E941336C70151
:1035A000B601620F731F841F951FA50194010E942D
:1035B0001336F1012083318342835383812F2B966D
:1035C0000FB6F894DEBF0FBECDBFDF91CF911F9134
:1035D000FF90EF90DF90CF90BF90AF909F908F9033
:1035E0007F906F905F904F903F902F900895633041
:1035F00009F043C0AE01465F5F4F60E00E94801952
:10360000182F20E030E0A9018111D3CFAE01465F31
:103610005F4F60E0C6010E948019182F811108C019
:10362000AE014A5F5F4F61E5C6010E94DC17182FAB
:10363000EE81FF81AA85B0E020E03FE24AE350E05E
:103640000E9444362B013C0124EF420E21E0521E21
:10365000611C711C6F01DD24F12CE12C04C0CC0C29
:10366000DD1CEE1CFF1CFA95D2F78FEFC81AD80AA2
:10367000E80AF80AEE24FF2476CFBE016F5F7F4F81
:103680000E943B1A8C81882351F1AE01465F5F4F47
:1036900060E0C6010E948019182FF12CE12C8111E5
:1036A0001BC0AE014A5F5F4F61E5C6010E94DC1797
:1036B000182F2E813F81C9019927B0E0A0E004C0F6
:1036C000880F991FAA1FBB1F3A95D2F70196A11D1B
:1036D000B11D7C01112329F0D12CC12C25C0F12C66
:1036E000E12CAE01465F5F4F61E0C6010E94801988
:1036F000182F8111F1CFAE01485F5F4F61E7C6011E
:103700000E94DC17182F28853985C9019927B0E058
:10371000A0E004C0880F991FAA1FBB1F3A95D2F7DB
:103720000196A11DB11D6C01AA85B0E020E03FE229
:103730004AE350E00E9444362B013C01E4EF4E0E78
:10374000E1E05E1E611C711C88EE882E83E0982EDD
:10375000A12CB12CC301B201A50194010E94133622
:10376000D601AE19BF090E9444360FCF4F925F9227
:103770006F927F92BF92CF92DF92EF92FF920F9360
:103780001F93CF93DF9300D000D0CDB7DEB78A016F
:10379000AE014F5F5F4F0E94681AB82E81112AC098
:1037A00069817A818B819C8128EE422E23E0522E02
:1037B000612C712CA30192010E94133669017A01D8
:1037C0009B01AC01AFEFBFEF0E9444366C507E4FBF
:1037D0008F4F9F4FA30192010E9413367601DD2483
:1037E000CC24C20ED31EE41EF51EF801C082D18285
:1037F000E282F3828B2D0F900F900F900F90DF914C
:10380000CF911F910F91FF90EF90DF90CF90BF90DD
:103810007F906F905F904F9008955F926F927F922C
:103820008F929F92AF92BF92CF92DF92EF92FF92D0
:103830000F931F93CF93DF93CDB7DEB761970FB68A
:10384000F894DEBF0FBECDBF7C018B01FC018089E7
:10385000FB018083AE014A5F5F4F68EFC7010E94A2
:10386000DC17582E81113AC1AE014F5F5F4F64E003
:10387000C7010E949317582E811130C12E813F81BC
:103880002115310569F050E040E069817A818B8132
:103890009C810E941336F801268337834087518725
:1038A000F80186819781A085B185F701868B978B7A
:1038B000A08FB18FF8011286AE014F5F5F4F60E2BB
:1038C000C7010E94DC17582E811108C189819A8195
:1038D000009709F01AC1F701858D968DA78DB0A1CB
:1038E000F80185879687A787B08BF701128EAE0106
:1038F0004F5F5F4F68E2C7010E94DC17582E8111AD
:10390000EDC089819A819F708115F8E09F0708F0CA
:1039100090514AEF489F9001499F300D1124C901F1
:10392000330FAA0BBB0BF801818B928BA38BB48B4B
:103930005801F1E2AF0EB11C470125E2820E911C45
:10394000380185E1680E711CD12CC12CA501B6018E
:10395000C7010E941218582E8111C0C0F401819134
:103960004F01F30181933F01FFEFCF1ADF0A24E0FB
:10397000A20EB11C86E0C816D10441F7AE014F5F1C
:103980005F4F61E0C7010E94D718582E8111A6C071
:103990008981F701E35EFE4F808387FFCAC081E023
:1039A000F80181AFF80181ADF701E75BFF4F80833C
:1039B00080ED97E0A0E0B0E08A879B87AC87BD8769
:1039C0001E821F821886198686E39BE0A0E0B0E085
:1039D000F80182839383A483B583BE016F5F7F4F19
:1039E000C7010E943B1A582E811178C0898181112C
:1039F00007C08A81811104C08B81882309F43EC0ED
:103A0000AE01465F5F4F62E0C7010E94681A8111F4
:103A1000C1C089818823A9F08A859B85AC85BD8535
:103A2000825B9D4FAF4FBF4FF8014281538164814C
:103A30007581840F951FA61FB71F82839383A4836C
:103A4000B5838B81882309F477C08A859B85AC85F3
:103A5000BD858E549D4FAF4FBF4F880F991FAA1F32
:103A6000BB1FF8014281538164817581840F951FCA
:103A7000A61FB71F82839383A483B5838C81811192
:103A800068C08D81882301F1AE01425F5F4F64E021
:103A9000C7010E94681A8E849F84A888B988F6E2BC
:103AA0008F0EF2E09F1EA11CB11CF80142815381D0
:103AB00064817581480D591D6A1D7B1D42835383A6
:103AC00064837583811166C0F80182819381A4812A
:103AD000B581F701828B938BA48BB58B852D619675
:103AE0000FB6F894DEBF0FBECDBFDF91CF911F910F
:103AF0000F91FF90EF90DF90CF90BF90AF909F908D
:103B00008F907F906F905F90089533E0880F991F9A
:103B10003A95E1F7B0E0A0E0F80185879687A7879E
:103B2000B08BF701858F968FA78FB0A381E0828F2E
:103B3000DECEF80111AE36CF8A81882309F49ECFFC
:103B40008A859B85AC85BD858C569D4FAF4FBF4FF9
:103B500088CFAE014A5F5F4F63E0C7010E94681AD9
:103B60008E809F80A884B984F4E98F0EF2E09F1EB6
:103B7000A11CB11CF8014281538164817581480DFB
:103B8000591D6A1D7B1D428353836483758388237B
:103B900009F477CF582EA2CF2F923F924F925F9287
:103BA0006F927F928F929F92AF92BF92CF92DF924D
:103BB000EF92FF920F931F93CF93DF93CDB7DEB7B2
:103BC00069970FB6F894DEBF0FBECDBF00ED17E0CA
:103BD00020E030E00B871C872D873E871F86188AE0
:103BE000198A1A8A40322EE4520761057105E0F401
:103BF0005CEFB52E8B2D69960FB6F894DEBF0FBE25
:103C0000CDBFDF91CF911F910F91FF90EF90DF908B
:103C1000CF90BF90AF909F908F907F906F905F906C
:103C20004F903F902F9008954E8B5F8B688F798FC8
:103C30008C01BE016A5F7F4F0E943B1AB82E811132
:103C4000D9CFCE88DF88E88CF98C88EEC81A88E056
:103C5000D80AE108F1088E81811106C08F81811197
:103C600003C088858823C1F1AE01455F5F4F62E0E4
:103C7000C8010E94681A81110AC18E81882391F0BF
:103C80008B859C85AD85BE85825B9D4FAF4FBF4FB9
:103C90008C159D05AE05BF0508F0AACFC81AD90A34
:103CA000EA0AFB0A8885882309F471C08B859C8504
:103CB000AD85BE858E549D4FAF4FBF4F880F991F66
:103CC000AA1FBB1F8C159D05AE05BF0508F090CF40
:103CD000C81AD90AEA0AFB0A89858823D9F0AE01F5
:103CE000415F5F4F63E0C8010E94681A4F855889A1
:103CF00069897A894C565D4F6F4F7F4F4C155D0532
:103D00006E057F0508F074CF8111C1C0C41AD50AB1
:103D1000E60AF70A8A85882309F46CCFBE016F5F33
:103D20007F4FC8010E943B1A8C818823E9F1AE01C4
:103D30004B5E5F4F60E0C8010E948019B82E811170
:103D40001CC0AE014D5E5F4F61E5C8010E94DC17EB
:103D5000B82E8B899C891C013324512C412C04C022
:103D6000220C331C441C551C9A95D2F79FEF291A3C
:103D7000390A490A590ABB20C9F08E899F89A88D42
:103D8000B98DF801828B938BA48BB58B33CF8F8148
:103D9000882309F4A1CF8B859C85AD85BE858C5683
:103DA0009D4FAF4FBF4F8ECF312C212CAE014B5EBC
:103DB0005F4F61E0C8010E948019B82E8111DDCFEC
:103DC000A6E2CA1AA2E0DA0AE108F108AD89B0E079
:103DD00020E03FE24AE350E00E9444364B015C01A0
:103DE000B4EF8B0EB1E09B1EA11CB11CA8EEB3E09A
:103DF000A70196010E9444362B013C01C501B40184
:103E000020ED37E040E050E00E941336420E531E92
:103E1000641E751EC501B40128EE33E040E050E099
:103E20000E941336C301B2010E941336220E331EC4
:103E300021143104E1F04101B12CA12CE1E08E1AF2
:103E40009108A108B10890E080E0B501A4014427E1
:103E5000452B462B472B31F0B694A7949794879423
:103E60000196F3CF982F88271C01280C391CA1013B
:103E700061E7C8010E943315B82E81117ECFF80189
:103E8000E153FF4FC082D182E282F38276CFB82E17
:103E9000B1CE7F928F929F92AF92BF92CF92DF92DC
:103EA000EF92FF920F931F93CF93DF931F92CDB7A3
:103EB000DEB77C015B016A01722E4C0183EE881A29
:103EC0008EEF980AF4011081198241E061E0C70188
:103ED0000E945D1581114AC060E4C7010E941D1A4D
:103EE000811144C0F1E07F121AC000E021E0AE0170
:103EF0004F5F5F4FB501C7010E942719882389F0E2
:103F00000F90DF91CF911F910F91FF90EF90DF9075
:103F1000CF90BF90AF909F908F907F900895F501C4
:103F2000108242E061E0C7010E945D15811124C04A
:103F300060E0C7010E941D1A81111EC0F1E07F12CE
:103F400018C001E020E0A601BE016F5F7F4FC701EE
:103F50000E9427198111D4CF412F61E0C7010E942F
:103F60005D158111CDCFF4011083CACFF501108208
:103F7000C7CFF6011082F0CFF601F9CF2F923F9212
:103F80004F925F926F927F928F929F92AF92BF9269
:103F9000CF92DF92EF92FF920F931F93CF93DF9315
:103FA000CDB7DEB7EC970FB6F894DEBF0FBECDBF2E
:103FB0006C015B01DC0150961C9241E060E80E94BC
:103FC0005D1541E06FEFC6010E945D1540E060E0C5
:103FD000C6010E945D15F601E95DFE4F408161E971
:103FE000C6010E945D1541E060E0C6010E945D15BA
:103FF00040E06FEFC6010E945D1540E060E8C60139
:104000000E945D1541E060E0C6010E945D158111CE
:1040100016C091E09983412C512C3201BFEF4B1A0D
:104020005B0A6B0A7B0A998190FF2AC08111B6C294
:10403000E8EC4E16510461047104D1F489EFEC965A
:104040000FB6F894DEBF0FBECDBFDF91CF911F91A9
:104050000F91FF90EF90DF90CF90BF90AF909F9027
:104060008F907F906F905F904F903F902F9008952A
:10407000AE014F5F5F4F60E0C6010E94D718CECF00
:10408000F8EC4F16510461047104C1F28111D7CFCD
:10409000C6010E94D7198111D2CF83E0F601E15EFB
:1040A000FE4F8083B696E080F1800CE010E020E0C7
:1040B00030E0AE01465E5F4F64E1349780810E943C
:1040C000A715892B11F08CEEBACFD50156961C920C
:1040D0005697F50110821182128213826CA170E052
:1040E000762F66272DA1620F711D14961D921D92C9
:1040F0001D921C921797E9A1F0E0FE2FEE27FF0F0B
:104100002F01712C612C1C964D925D926D927C92C8
:104110001F978BA190E0982F8827990F8C0130E092
:1041200020E050960D931D932D933C9353970C8D47
:1041300010E0102F00272D8D7801E20EF11CFCAE4F
:10414000EBAE5596FC92EE9254979A8CD601A75CF2
:10415000BE4F2D913C9111975B978C90283E03E0C8
:104160003007E9F1629FC001639F900D729F900D2F
:1041700011248C509E4F68EE73E00E94FF35D601EB
:104180005D96ED90FD900D911C9190975A962C9113
:10419000222329F12BAD3CAD2E9DA0012F9D500D6A
:1041A0003E9D500D1124452F5527E417F50741F486
:1041B00060EE7AE8882009F4E3C068EB72E212C08E
:1041C0009F01DB010E94353683017F01E41AF50A65
:1041D00001091109A80197010E941336B90188202D
:1041E00009F4CEC0CB019695879596958795D50114
:1041F00019969C938E9318976295660F660F607C54
:1042000057966C931FA61EA6892D90E07C0173E043
:10421000F594E7947A95E1F7FAAEE9AE09AD0F703F
:10422000902E09F4B2C089AD8D7011E018AB8530C5
:1042300029F084EF800F843008F018AA41E06FEF76
:10424000C6010E945D15811107C0AE01425D5F4F3E
:1042500066EBC6010E94DC179EA520E0392F330FC4
:10426000790110E000E0E9AAFAAA0BAB1CAB8111BE
:1042700005C040E06FEFC6010E945D15F601EE5CDF
:10428000FE4FE9A8FAA80BA91CA9E082F1820283DB
:104290001383811178C1D60195968C9095978820CB
:1042A00009F47FC0F501E484F584068517855A96E4
:1042B0008C9120E030E0A901882399F0A489B58988
:1042C000F601258D368D478D50A10E9444369B0105
:1042D000AC0120583F4F4F4F5F4F232F342F452FB6
:1042E00055272E0D3F1D401F511FA8EEB3E00E9421
:1042F000443670588F4F9F4FBC0188279927F6018D
:10430000E65DFE4F672B682B692B09F041C08EEAF2
:1043100097E8AFE8B2E080839183A283B3831EEA7B
:10432000E12E17E8F12E0FE812E0EDAAFEAA0FAB7E
:1043300018AFD5011B961C921E921A97AE01465DCE
:104340005F4F70E060E0C6010E9412184AA55BA5AD
:104350006CA57DA5411551056105710559F0FF2436
:10436000F3940DA91EA92FA938AD40175107620774
:10437000730708F0F12C8823A9F0212C312C07C1F8
:10438000F50171876087178A3DCF01E008AB56CFF2
:1043900010821182128213821DAA1EAA1FAA18AEB1
:1043A000C8CFF12CD60197963C90332009F4C5C0B4
:1043B000AE014A5D5F4F62E070E0C6010E941218D4
:1043C0004EA15FA168A579A541155105610571054B
:1043D00059F0EE24E39409A91AA92BA93CA9401786
:1043E00051076207730708F0E12C212C90E081113E
:1043F00032C0D60198962C90222009F4A4C00BADAF
:104400001CAD0115110509F49AC0962D852D742D4A
:104410006627980150E040E00E94133629013A01D6
:10442000AE014F5F5F4F63E070E0C6010E9412185B
:1044300049815A816B817C81411551056105710566
:1044400031F091E0441655066606770608F090E0D4
:10445000882309F479C0D5011B961C921E921A97E5
:1044600080E0811002C0FF24F394F60136A1F3A688
:10447000F4E09F1609F4B0C021E0311120E0D6012C
:104480009C962C93311002C0EE24E394F601E5A62D
:10449000211001C091E0D6019E969C93F501808F7A
:1044A0009601265B3F4F99E1F901DE0111960190DB
:1044B0000D929A95E1F7D5011896ED91FC91199717
:1044C00057969C9157971A966D917C911B971C96C5
:1044D000ED90FD900D911C911F9750964D905D9021
:1044E0006D907C90539754964D915C91559714968E
:1044F0008D909D90AD90BC9017978D829E82AF82DB
:10450000B886FA87E9877C876B87ED86FE860F87FA
:10451000188B498A5A8A6B8A7C8A5E8B4D8B988F5E
:10452000898F89E1FE013196D90101900D928A951A
:10453000E1F7C6010E94F41882CDE12C5ACF412C3C
:10454000512C32016DCF90E018A98FEF113009F492
:1045500088CF890D8330F0F026E0921639F139E0EA
:10456000931621F189AD8D708830B1F041E0E416E9
:1045700099F054E0951639F1913001F1F41601F1FA
:104580009F2DEF2C68CF212C312C812CF12C90E029
:10459000E12C61CF85E065CF83E063CFB8EC4B16AB
:1045A00051046104710409F04ACD48CD84E08110C2
:1045B0005CCFF60136A121E023A75ECF82E0F7CFE2
:1045C000E92E81E0F4CF82E081104FCF81E0D60167
:1045D0009B968C93E12C82E021E051CFAF92BF9269
:1045E000DF92EF92FF920F931F93CF93DF93CDB79C
:1045F000DEB769970FB6F894DEBF0FBECDBF8C0152
:104600005B017C0183EEE81A8EEFF80AF701D08097
:1046100040EC61E0C8010E945D15811126C0BE0119
:104620006F5F7F4FC8010E94BE1F81111EC041E015
:104630006FEFC8010E945D15811117C0A50166EBDF
:10464000C8010E94DC17811110C040E06FEFC80163
:104650000E945D15811109C04D2D61E0C8010E94C5
:104660005D15811102C0F701D08269960FB6F894EA
:10467000DEBF0FBECDBFDF91CF911F910F91FF9095
:10468000EF90DF90BF90AF9008952F923F924F929E
:104690005F926F927F928F929F92AF92BF92CF92D2
:1046A000DF92EF92FF920F931F93CF93DF93CDB7DB
:1046B000DEB7AC970FB6F894DEBF0FBECDBF1C01BE
:1046C0007FA36EA359A748A71F82188619861A864A
:1046D0001B861C861D861E86198A1A8AFC01E85DC7
:1046E000FE4F20813181398F288FAC014F5E5E4FA4
:1046F0005B8F4A8FDA011C922C01BEEE4B1ABEEF83
:104700005B0AF20110823C01FDEE6F1AFEEF7F0A98
:10471000D3011C92FC01EC5EFE4F10823196108298
:104720003196108241E06FEF0E945D158B8B8111F5
:104730001DC140E06FE4C1010E945D158B8B8111AA
:1047400015C14CE26EE4C1010E945D158B8B811195
:104750000DC140E06FEFC1010E945D158B8B81118F
:1047600005C144EB66EBC1010E945D158B8B811185
:10477000FDC040E060E8C1010E945D158B8B811196
:10478000F5C020E0AE014E5E5F4FBE016F5E7F4F11
:10479000C1010E94491F8B8B8111E8C01F821886BE
:1047A00019861A86F101E95EFE4FFD8FEC8F9E019E
:1047B000295F3F4F4901A3E0AA2EB12CC12CD12C77
:1047C000E12CF12C87012A8D3B8DAF0160E0C10106
:1047D0000E94AE168B8B8111C9C04F8158856985A7
:1047E0007A854C8B5D8B6E8B7F8BBE01615F7F4FBB
:1047F000C1010E94EE228B8B8111B8C08F859889F0
:10480000688D798D6817790708F0D3C0AA8DBB8DA4
:104810001C92F2011082D3011C92329610823196C2
:104820001082319610828C899D89AE89BF898C5403
:104830009F4FAF4FBF4FE6E0B695A79597958795E9
:10484000EA95D1F7880F991F880F991F87509E4FBF
:10485000FC0180819181A281B381892B8A2B8B2BD2
:1048600091F42C893D894E895F892C3231054105AF
:10487000510548F42F5F3F4F4F4F5F4F2C8B3D8BBF
:104880004E8B5F8BD0CFAE01495F5F4F4A0173E023
:10489000A72EB12CC12CD12CEC88FD880E891F8944
:1048A0002A8D3B8D4C8D5D8D61E0C1010E94AE165D
:1048B000811159C16F81788589859A856C8B7D8B33
:1048C0008E8B9F8BBE01615F7F4FC1010E94EE22E4
:1048D000811149C18F859889A88DB98D11E063E058
:1048E000462E512C612C712CA817B90720F010E02E
:1048F000412C512C3201C12CD12C7601C39460C0C3
:10490000D501C4010196A11DB11D8C8B9D8BAE8B71
:10491000BF8B86E0EAA5FBA5ACA5B02F01900D9258
:104920008A95E1F74E8C5F8C68A079A04AA35BA3BF
:104930006CA37DA36FC04E8C5F8C68A079A0AEA1E4
:10494000BFA14D925D926D927C921397E8A5F9A557
:104950001083F101EC5FFE4F81E0808332978C91F0
:104960008083A8A5B9A58C91319680838B89AC965C
:104970000FB6F894DEBF0FBECDBFDF91CF911F9170
:104980000F91FF90EF90DF90CF90BF90AF909F90EE
:104990008F907F906F905F904F903F902F900895F1
:1049A000BEECBB8BE3CFEEECEB8BE0CFFEECFB8BF6
:1049B000DDCF10E0412C512C3201C12CD12C7601DD
:1049C0008F859889288D398D8217930708F0B7CF86
:1049D00046E0EA8DFB8D9E012F5F3F4FD90101908C
:1049E0000D924A95E1F7E88DF98D8E1B9F0BAC0176
:1049F00070E060E04AA35BA36CA37DA353E0452E67
:104A0000512C612C712CB1016F5E7E4F7BA76AA780
:104A10002CA7032F9E01255F3F4F4C895D896E892E
:104A20007F898C8D9D8D0E94A4058B849C84AD8490
:104A3000BE847FEF87169706A706B70609F4B0CFA6
:104A4000D301C2010196A11DB11D8E8F9F8FA8A316
:104A5000B9A3D501C4018C549F4FAF4FBF4F36E06F
:104A6000B695A795979587953A95D1F7880F991F91
:104A7000880F991F87509E4F11E0FC018081918122
:104A8000A281B381892B8A2B8B2B09F410E0812F13
:104A900090E0B0E0A0E08C159D05AE05BF0509F0E3
:104AA00082CFD501C40123E0B695A7959795879548
:104AB0002A95D1F7B501A4014770552766277727B6
:104AC00086309105A105B10508F070CFEA8DFB8D08
:104AD000E80FF91F21E030E001C0220F4A95EAF704
:104AE0008081822B80836A8D7B8DC1010E94851518
:104AF000811139C0BE01615F7F4FC1010E94EE226A
:104B0000811131C08F859889288D398DAC01421B68
:104B1000530B8217930711F450E040E070E060E01F
:104B2000A88DB98DA817B90708F0EACE8AA19BA174
:104B3000ACA1BDA184179507A607B70708F0FBCE67
:104B4000BE016F5F7F4FC1010E94851596E0FE0197
:104B50003196D101AF5EBE4F01900D929A95E1F76B
:104B6000882309F4ECCE8B8B01CF9F92AF92BF923A
:104B7000CF92DF92EF92FF920F931F93CF93DF9329
:104B8000CDB7DEB7A0970FB6F894DEBF0FBECDBF8E
:104B90006C012FEDC20ED11CF601A080F7E0F12CC4
:104BA000AF1609F4EEC0B62E8C0141E060E80E9419
:104BB0005D15F82E41E06FEFC8010E945D15F82ADF
:104BC00040E060E0C8010E945D15F82A46E06FEF02
:104BD000C8010E945D15F82AAE01425E5F4F63E88E
:104BE000C8010E94D718F82A4E8D446063E8C801B6
:104BF0000E945D15F82A47E06FEFC8010E945D151D
:104C0000F82A41E061E8C8010E945D15F82A0E9477
:104C10007C05F82A41E060E8C8010E945D15F82A89
:104C200021E0B212C1C0A0FC02C24BE664E9C80197
:104C30000E945D15E82EC8010E949F198E29F82A4E
:104C4000AE01465E5F4F60E9C8010E949317F82AE3
:104C50008A8D9B8DAC8DBD8D992EE89497F897FB2E
:104C6000EE24E0F844E264E9C8010E945D15F82AE8
:104C7000C8010E949F19F82AAE01465E5F4F60E9A5
:104C8000C8010E949317F82A8A8D9B8D2C8D3D8D2B
:104C90003C8B2D8B9E8B8F8B45E264E9C8010E9473
:104CA0005D15F82AC8010E949F19F82AAE01465ED8
:104CB0005F4F60E9C8010E949317F82A8C8D9D8D83
:104CC000988F898F40E061E8C8010E945D15F82A3D
:104CD00046E06FEFC8010E945D15F82AAE01425E02
:104CE0005F4F63E8C8010E94D718F82A4E8D4B7FAA
:104CF00063E8C8010E945D15F82A41E06FEFC80122
:104D00000E945D15F82A41E060E0C8010E945D152F
:104D1000F82A40E06FEFC8010E945D15F82A40E0D4
:104D200060E8C8010E945D15F82A59F5F1E0BF1648
:104D300099F0A1FC23C0F801E052FF4F8F8D8083D2
:104D4000319688A18083BE016F5F7F4FC8018E516D
:104D50009F4F0E94863712C0A0FC10C0F801EE5F82
:104D6000FE4F90823196E082DE0154967496035E87
:104D70001E4F8D9181930E171F07D9F7BA28F601A0
:104D8000B0828F2DA0960FB6F894DEBF0FBECDBFB8
:104D9000DF91CF911F910F91FF90EF90DF90CF9017
:104DA000BF90AF909F900895A1FC41C142E064E99B
:104DB000C8010E945D15E82EC8010E949F198E2926
:104DC000F82AAE01415E5F4F60E9C8010E94D71822
:104DD000F82A4BE764E9C8010E945D15F82AC8016A
:104DE0000E949F19F82AAE01405E5F4F60E9C8013A
:104DF0000E94D718F82A47E764E9C8010E945D15A8
:104E0000F82AC8010E949F19F82AAE01465E5F4F3A
:104E100060E9C8010E949317F82A4A8D5B8D6C8D5A
:104E20007D8DDB01CA0129E1B695A79597958795F8
:104E30002A95D1F78983DB01CA0132E1B695A7959E
:104E4000979587953A95D1F78F778A83DB01CA01C9
:104E5000EBE0B695A79597958795EA95D1F78F776B
:104E60008B83DB01CA01F4E0B695A79597958795EA
:104E7000FA95D1F78F778C83440F440F440F48770E
:104E80004E8F48E764E9C8010E945D15F82AC80101
:104E90000E949F19F82AAE01465E5F4F60E9C80183
:104EA0000E949317F82A8A8D9B8DAC8DBD8DAC0125
:104EB000BD012DE176956795579547952A95D1F7D0
:104EC0002E8D240F2D83AC01BD0136E176956795BB
:104ED000579547953A95D1F74F774E83AC01BD0171
:104EE000EFE07695679557954795EA95D1F74F7717
:104EF0004F83292F2F772887AC01BD0176956795C1
:104F0000579547954F774987982F9295990F990F05
:104F100090749E8F49E764E9C8010E945D15F82AE4
:104F2000C8010E949F19F82AAE01465E5F4F60E9F2
:104F3000C8010E949317F82A8A8D9B8DAC8DBD8D78
:104F4000AC01BD012AE176956795579547952A955D
:104F5000D1F72E8D240F2A87AC01BD0133E1769560
:104F60006795579547953A95D1F74F774B87AC01A1
:104F7000BD01ECE07695679557954795EA95D1F791
:104F80004F774C87AC01BD01F5E076956795579555
:104F90004795FA95D1F74F774D87982F990F990F2D
:104FA0009C779E8F4AE764E9C8010E945D15F82A44
:104FB000C8010E949F19F82AAE01465E5F4F60E962
:104FC000C8010E949317F82A8A8D9B8DAC8DBD8DE8
:104FD000AC01BD012EE176956795579547952A95C9
:104FE000D1F72E8D240F2E87AC01BD0137E17695C8
:104FF0006795579547953A95D1F74F774F872A2F61
:105000002F77288BAC01BD01E9E076956795579520
:105010004795EA95D1F74F77498BF2E0B695A7957A
:1050200097958795FA95D1F78F778A8B1B8AE12C14
:10503000912C48CE0E947A37FB0101900020E9F7BD
:105040003197AF01461B570BDC01ED91FC910280BB
:10505000F381E02D099485ED8093BC0080914E038F
:1050600090914F03A0915003B09151030796A11D59
:10507000B11D23E0B695A795979587952A95D1F709
:105080002091BC0024FD03C010924C030895409170
:105090004E0350914F036091500370915103452B83
:1050A000462B472B69F30097A105B10541F025E395
:1050B0002A95F1F700000197A109B109E1CF80918C
:1050C0004D030C94C7101F920F920FB60F9211242C
:1050D0002F933F934F935F936F937F938F939F9300
:1050E000AF93BF93EF93FF938AE893E00E94A606E5
:1050F000FF91EF91BF91AF919F918F917F916F91B0
:105100005F914F913F912F910F900FBE0F901F9085
:1051100018951F920F920FB60F9211242F938F9311
:105120009F93EF93FF93E0919A03F0919B0380810B
:10513000E091A003F091A10382FD1BC090818091BA
:10514000A3038F5F8F732091A403821741F0E09136
:10515000A303F0E0E657FC4F958F8093A303FF91E4
:10516000EF919F918F912F910F900FBE0F901F90F5
:1051700018958081F4CF1F920F920FB60F921124D1
:105180002F933F938F939F93AF93BF93809173031C
:1051900090917403A0917503B091760330917203DE
:1051A00023E0230F2D3758F50196A11DB11D209343
:1051B00072038093730390937403A0937503B09369
:1051C00076038091770390917803A0917903B09151
:1051D0007A030196A11DB11D809377039093780304
:1051E000A0937903B0937A03BF91AF919F918F9170
:1051F0003F912F910F900FBE0F901F90189526E8AA
:10520000230F0296A11DB11DD2CF1F920F920FB690
:105210000F9211242F933F934F935F936F937F933C
:105220008F939F93AF93BF93EF93FF938091B900B8
:10523000887F803609F44AC0F0F5883209F4A7C0A7
:1052400018F5803109F49BC0B8F4882309F4F9C03B
:10525000883009F494C0FF91EF91BF91AF919F9175
:105260008F917F916F915F914F913F912F910F900F
:105270000FBE0F901F901895883109F488C08032B6
:1052800051F780934A0314C0803409F49DC040F460
:105290008033B9F38833F9F680934A0385ECB0C0C4
:1052A000803509F485C0883509F496C0883499F6AC
:1052B0000E942B28D0CF883909F48CC038F5883764
:1052C00029F050F4883611F0803729F683E0809376
:1052D0004C031092250357C0883809F47BC08039ED
:1052E00019F0803809F0B7CF80912503803208F09B
:1052F00071C0E091250381E08E0F8093250380919A
:10530000BB00F0E0EB5FFC4F80833DC0803B39F099
:10531000E0F4803A09F479C0883A09F09CCF84E03F
:1053200080934C031092040310920303E0918403D2
:10533000F091850309958091030381110FC081E0ED
:10534000809303031092E30209C0803C09F4A6CFC6
:10535000883C09F4A3CF883B09F07DCFE09104039A
:1053600081E08E0F80930403F0E0ED51FD4F8081CA
:105370008093BB00909104038091030329C0809126
:1053800047038093BB0085EC8093BC0064CF909171
:10539000490380914803981758F5E091490381E04B
:1053A0008E0F80934903F0E0EA5DFC4F8081E9CFE6
:1053B000E091490381E08E0F809349038091BB0007
:1053C000F0E0EA5DFC4F80839091490380914803AF
:1053D0009817C8F285E8D8CFE091490381E08E0F95
:1053E000809349038091BB00F0E0EA5DFC4F80832D
:1053F00080914B0381115CCF81E08093460384EA66
:105400008093BC0010924C0326CF85EC8093BC00A7
:1054100010924C0380912503803230F4E0912503F3
:10542000F0E0EB5FFC4F10826091250370E0E091AB
:105430008203F091830385E093E0099510922503A0
:105440000ACF10924A0334CFEAE8F3E013821282C3
:1054500048EE53E060E070E04483558366837783D1
:105460008DE092E09183808385EC90E0958784873E
:1054700084EC90E09787868780EC90E0918B808B1E
:1054800081EC90E0938B828B82EC90E0958B848B07
:1054900086EC90E0978B868B118E128E138E148E75
:1054A000A5EDB5E013961C921E92129714964D939B
:1054B0005D936D937C9317978FE192E011969C9387
:1054C0008E93E1EEF5E01382128220E830E035831E
:1054D000248380E490E097838683318720879387B5
:1054E0008287168A158614861786168681E0858B34
:1054F000848B2FEF3FEF338B228B318B208B878B6D
:10550000108E128E118E81E392E091838083148E2F
:10551000138EB68FA58F10A2178E8FEF84A385A34D
:1055200086A387A384E080A780E89AE1A6E0B0E0A4
:1055300085AB96ABA7ABB0AF80EA96E8A1E0B0E050
:1055400081AF92AFA3AFB4AF80E586AF17AE8EEA5E
:1055500091E0E7E2F4E0DF019C011D922150304030
:10556000E1F788E294E09093700580936F050895C9
:10557000CF93DF93CDB7DEB7C856D1090FB6F894F5
:10558000DEBF0FBECDBF789484B5826084BD84B584
:10559000816084BD85B5826085BD85B5816085BD2E
:1055A00080916E00816080936E00109281008091E6
:1055B000810082608093810080918100816080936E
:1055C0008100809180008160809380008091B10093
:1055D00084608093B1008091B00081608093B000BE
:1055E00080917A00846080937A0080917A00826052
:1055F00080937A0080917A00816080937A00809114
:105600007A00806880937A001092C100E0919A033A
:10561000F0919B0382E08083E0919603F0919703E1
:105620001082E0919803F09199038FEC808310929F
:10563000A203E0919E03F0919F0386E08083E091B6
:105640009C03F0919D03808180618083E0919C03A5
:10565000F0919D03808188608083E0919C03F091AC
:105660009D03808180688083E0919C03F0919D037D
:1056700080818F7D808360E08AE10E948C07809129
:10568000000690910106892B09F440C02091E7059E
:105690003091E805C901079697FD079613E09595A7
:1056A00087951A95E1F72091E5053091E605829FEF
:1056B000A001839F500D929F500D112470E060E077
:1056C00080910006909101060E947F372091E705A6
:1056D0003091E8058091E5059091E605213231058C
:1056E0000CF042C1B9016052710977FF02C06F5FCF
:1056F0007F4F759567958357910997FD019600E255
:1057000010E023E730E04EE955E041C12091E70584
:105710003091E805C901079697FD0796B3E0959586
:105720008795BA95E1F72091E5053091E605AC0142
:10573000429FC001439F900D529F900D11240E94E3
:1057400055369093010680930006892B09F09ECF71
:105750000E946B1368EE73E080E090E00E94E20725
:105760000E94B01084E08093F5058093F60581E0F7
:1057700090E09093F4058093F3059093F205809365
:10578000F105E0916F05F0917005EF5BFE4F89E246
:105790008083E0916F05F0917005EE5BFE4F81E034
:1057A0008083E0916F05F0917005ED5BFE4F80E91D
:1057B00091E091838083E0916F05F0917005EB5B40
:1057C000FE4F85ED95E0918380830E94B01021E02B
:1057D0004EEF69E888E294E00E948618811106C0C5
:1057E00040E068E888E294E00E945D151E015BE3FA
:1057F000250E311CA10160EC88E294E00E94D718CC
:105800001092070588EE93E09093620580936105FE
:1058100080E991E0909364058093630585E89BE6B9
:10582000A1E0B0E08093650590936605A0936705BD
:10583000B093680584EA90E7A9E0B0E08093F004B3
:105840009093F104A093F204B093F30410924504F2
:10585000109246041092470410924804CE0101961B
:105860002C01BC0188E294E00E940D1C082F8111DC
:105870000AC019821A828AE3F201A8E3B4E0019017
:105880000D928A95E1F784E690E090934A05809323
:10589000490584E893E090934C0580934B0584EF91
:1058A00091E090934E0580934D0580E09AE09093AF
:1058B00051058093500581E08093600541E060E8E8
:1058C00088E294E00E945D15182F41E06FEF88E2B6
:1058D00094E00E945D15182B102B40E060E088E2F8
:1058E00094E00E945D15182BAE014C5A5F4F61E9A0
:1058F00088E294E00E94D718182B65968FAD6597C3
:1059000080934F0541E060E088E294E00E945D15DD
:10591000182B40E06FEF88E294E00E945D15182B91
:1059200040E060E888E294E00E945D15912F982B9A
:1059300010E000E0FF24F39491116CC303301105D3
:1059400009F482C20CF0F2C10130110509F4FEC164
:105950000230110509F475C2F0924D04F801E95DB9
:10596000FB4FF6A280E009C2B9016054710977FFCC
:1059700002C06F5F7F4F759567958255910997FDBE
:10598000019600E410E022E530E04EE757E09595FF
:1059900087950E945C0F82E0809303068091FE054C
:1059A0009091FF05892B09F4CBC08DE3809302060B
:1059B0000E94B0108091090687FD1EC061E00E9420
:1059C0008C0761E0809109060E945E0761E070E04B
:1059D00080E090E00E94E20760E0809109060E946A
:1059E0005E076AE070E080E090E00E94E20761E01C
:1059F000809109060E945E078091FE059091FF0547
:105A0000892B09F45CC1209116063091170640914C
:105A100018065091190660E074E284EF90E00E944D
:105A2000133620513109410951095695479537954B
:105A300027952093B80064E080E995E00E94541215
:105A40006091E705615081EE95E00E94091364E0E2
:105A50008CE895E00E9454128091030660E1813049
:105A600009F064E181EE95E00E94091364E088E8A2
:105A700095E00E9454128FE880931E068091E50500
:105A80009091E6058038910509F032C18091E705D3
:105A90009091E8058034910509F03AC180910306A0
:105AA000813009F023C18FE980931E0612E16AED6F
:105AB00081EE95E00E940913612F81EE95E00E942E
:105AC000091361E881EE95E00E94091360911E06BA
:105AD00081EE95E00E94091369ED81EE95E00E9448
