:100000000C9453010C94D4050C94A9050C947E0512
:100010000C9453050C9428050C94FD040C94D20404
:100020000C94A7040C9484010C9484010C94840116
:100030000C9484010C9484010C9484010C9484012C
:100040000C9484010C9484010C9484010C9484011C
:100050000C9484010C9484010C9484010C945D0430
:100060000C9484010C9484010C9484010C948401FC
:100070000C9484010C9484010C9484010C948401EC
:100080000C9484010C9484010C9484010C948401DC
:100090000C9484010C9484010C9484010C948401CC
:1000A0000C9484010C9484010C9484010C948401BC
:1000B0000C9484010C9484010C9484010C948401AC
:1000C0000C9484010C9484010C9484010C9484019C
:1000D0000C9484010C9484010C9484010C9484018C
:1000E0000C9484010C94CF020C9448030C943504B6
:1000F0000C94E3020C94C9010C94C0020C942003EC
:100100000C94E5010C94B6010C94AA010C94110313
:100110000C94FD020C9417040C94B2010C94DB01B6
:100120000C94A4010C94DF010C94B9010C94D90235
:100130000C94B2030C94D1010C94F3020C943E0382
:100140000C94C3010C94B8020C94EB020C940703BA
:100150000C9452030C941D040C942F040C94CD01A8
:100160000C942A030C94CC080C94C5020C94BF0187
:100170000C94AE010C94D7010C94E9010C94E401A9
:100180000C94340300002100240027002A002D00D5
:100190003000330001010000040107010A010000E2
:1001A0002200250028002B002E003100340002011F
:1001B0000000050108010B010000200023002600BB
:1001C00029002C002F00320000010000030106016D
:1001D00009010505050507050808080802020202CD
:1001E0000A0A0808040404040101010101010101D3
:1001F0000303030303030303040707070C0C0C0C9E
:100200000C0C0C0C02020202060606060606060686
:100210000B0B0B0B0B0B0B0B010210202008081013
:100220002040102040800201020108040201010266
:10023000040810204080804020100804020180043F
:10024000020180402010080402010804020101029A
:1002500004081020408001020408102040800000A3
:100260000A0B02090C0D0E08070304010000000030
:10027000000000000000000000000000000000007E
:10028000000000000000000000001211100000003B
:10029000000000000000000000000000000000005E
:1002A00000000000CC0811241FBECFEFD1E2DEBF5A
:1002B000CDBF00E00CBF12E0A0E0B2E0EAECF5E157
:1002C00000E00BBF02C007900D92A031B107D9F733
:1002D00022E0A0E1B2E001C01D92AE35B207E1F725
:1002E00011E0C3E5D1E000E006C021970109802FAD
:1002F000FE010E94DB0AC235D10780E00807A9F79A
:100300000E94AE060C94E30A0C94000081508231E6
:1003100008F05AC0E82FF0E08827EE56FE4F8F4FC6
:100320000C94DB0AB201B601A401AA01AE01E401FA
:10033000B901BF01C301C901CD01D101D701DB0161
:10034000E401DF01E501E901809180008F7780936E
:1003500080000895809180008F7DF9CF809180008A
:10036000877FF5CF84B58F7784BD089584B58F7D61
:10037000FBCF8091B0008F778093B000089580917B
:10038000B0008F7DF9CF809190008F77809390009F
:100390000895809190008F7DF9CF80919000877FA4
:1003A000F5CF8091A0008F778093A0000895809171
:1003B000A0008F7DF9CF8091A000877FF5CF80913D
:1003C00020018F77809320010895809120018F7DF7
:1003D000F9CF80912001877FF5CFCF93DF93282F2E
:1003E00030E0F901E25AFD4F8491F901E85EFD4FDA
:1003F000D491F901EE52FE4FC491CC23A1F08111AA
:100400000E948601EC2FF0E0EE0FFF1FE854FE4F34
:10041000A591B491EC91ED2381E090E009F480E0A6
:10042000DF91CF91089580E090E0FACF1F93CF93B2
:10043000DF93282F30E0F901E25AFD4F8491F90152
:10044000E85EFD4FD491F901EE52FE4FC491CC23EA
:10045000A9F0162F81110E948601EC2FF0E0EE0F1B
:10046000FF1FE256FE4FA591B4918FB7F894EC911F
:10047000111108C0D095DE23DC938FBFDF91CF919F
:100480001F910895DE2BF8CFCF93DF9390E0FC010E
:10049000E85EFD4F24918E529E4FFC01849188238B
:1004A000C9F090E0880F991FFC01EC57FE4FA59111
:1004B000B491FC01E256FE4FC591D49161110DC07B
:1004C0009FB7F8948C91209582238C938881282360
:1004D00028839FBFDF91CF910895623051F49FB779
:1004E000F8943C91822F809583238C93E8812E2B66
:1004F000EFCF8FB7F894EC912E2B2C938FBFEACFD0
:100500001F93CF93DF93182FEB0161E00E94440209
:10051000209739F460E0812FDF91CF911F910C94E7
:100520001602CF3FD10511F461E0F5CFE12FF0E0E5
:10053000E25AFD4FE491E150E23108F0B3C0F0E03F
:100540008827EA55FD4F8F4F0C94DB0AB802C00292
:10055000C502CF02D9025203E302EB02F302FD020D
:100560000703110320032A03520334033E03480305
:1005700084B5806884BDC7BDDF91CF911F91089578
:1005800084B5806284BDC8BDF7CF8091800080684B
:1005900080938000D0938900C0938800EDCF809134
:1005A0008000806280938000D0938B00C0938A008B
:1005B000E3CF80918000886080938000D0938D008D
:1005C000C0938C00D9CF8091B00080688093B00038
:1005D000C093B300D1CF8091B00080628093B0000F
:1005E000C093B400C9CF8091900080688093900040
:1005F000D0939900C0939800BFCF80919000806203
:1006000080939000D0939B00C0939A00B5CF8091C7
:100610009000886080939000D0939D00C0939C00D0
:10062000ABCF8091A00080688093A0008091A00053
:100630008F7B8093A000D093A900C093A8009CCF8B
:100640008091A00080628093A000D093AB00C09303
:10065000AA0092CF8091A00088608093A000D093E0
:10066000AD00C093AC0088CF80912001806880935A
:100670002001D0932901C09328017ECF80912001D1
:10068000806280932001D0932B01C0932A0174CF04
:1006900080912001886080932001D0932D01C09328
:1006A0002C016ACFC038D1050CF03ECF33CF3FB715
:1006B000F8948091210290912202A0912302B0919E
:1006C000240226B5A89B05C02F3F19F00196A11D55
:1006D000B11D3FBFBA2FA92F982F8827BC01CD018C
:1006E000620F711D811D911D42E0660F771F881FEB
:1006F000991F4A95D1F708958F929F92AF92BF921A
:10070000CF92DF92EF92FF920E9457034B015C0160
:1007100088EEC82E83E0D82EE12CF12C0E945703DE
:10072000681979098A099B09683E7340810591051A
:10073000A8F321E0C21AD108E108F10888EE880E7A
:1007400083E0981EA11CB11CC114D104E104F10482
:1007500029F7FF90EF90DF90CF90BF90AF909F90E0
:100760008F900895089560E08DE10E94160260E088
:100770008FE10E94160261E081E20E9416026FEF93
:1007800070E089E00E94800260E089E10E94160228
:1007900060E087E10E94160261E08BE10E94160290
:1007A0006FEF70E088E00C948002DC01ED91FD9128
:1007B0008081ED91FD919081ED91FD916C9163703F
:1007C0008E2309F064609F2309F06860E2EFF3E094
:1007D000E60FF11D659565956D936D917D918D91F8
:1007E0009D91099423C01AC012C016C010C01EC02B
:1007F00009C014C013C006C019C009C00DC007C08D
:100800000DC014C062507040804090400BC06150D9
:1008100070408040904006C06E5F01C06F5F7F4FA8
:100820008F4F9F4F9E938E937E936E9308958091EA
:100830001A0290911B020C94D5038091180290919A
:1008400019020C94D50380911602909117020C9412
:10085000D50380911402909115020C94D5038091D8
:100860001202909113020C94D50380911002909182
:1008700011020C94D50361E089E10E94160260E048
:1008800087E10E94160261E08BE10E9416026FEF81
:1008900070E088E00E94800261E08DE10E94160213
:1008A00060E08FE10E94160261E081E20E94160280
:1008B0006FEF70E089E00C9480021F920F920FB6E8
:1008C0000F9211242F933F938F939F93AF93BF93D6
:1008D00080911D0290911E02A0911F02B0912002F2
:1008E00030911C0223E0230F2D3758F50196A11DEE
:1008F000B11D20931C0280931D0290931E02A093B1
:100900001F02B09320028091210290912202A091B7
:100910002302B09124020196A11DB11D80932102F2
:1009200090932202A0932302B0932402BF91AF912F
:100930009F918F913F912F910F900FBE0F901F901D
:10094000189526E8230F0296A11DB11DD2CF1F9244
:100950000F920FB60F9211240BB60F922F933F9365
:100960004F935F936F937F938F939F93AF93BF93B7
:10097000EF93FF93E0910E02F0910F021995FF9112
:10098000EF91BF91AF919F918F917F916F915F9107
:100990004F913F912F910F900BBE0F900FBE0F9074
:1009A0001F9018951F920F920FB60F9211240BB63D
:1009B0000F922F933F934F935F936F937F938F93F8
:1009C0009F93AF93BF93EF93FF93E0910C02F0914D
:1009D0000D021995FF91EF91BF91AF919F918F916A
:1009E0007F916F915F914F913F912F910F900BBE2F
:1009F0000F900FBE0F901F9018951F920F920FB679
:100A00000F9211240BB60F922F933F934F935F9346
:100A10006F937F938F939F93AF93BF93EF93FF93C6
:100A2000E0910202F09103021995FF91EF91BF91BD
:100A3000AF919F918F917F916F915F914F913F9176
:100A40002F910F900BBE0F900FBE0F901F90189517
:100A50001F920F920FB60F9211240BB60F922F9385
:100A60003F934F935F936F937F938F939F93AF9336
:100A7000BF93EF93FF93E0910002F091010219956B
:100A8000FF91EF91BF91AF919F918F917F916F9166
:100A90005F914F913F912F910F900BBE0F900FBE22
:100AA0000F901F9018951F920F920FB60F9211245E
:100AB0000BB60F922F933F934F935F936F937F9358
:100AC0008F939F93AF93BF93EF93FF93E0910A02AD
:100AD000F0910B021995FF91EF91BF91AF919F910A
:100AE0008F917F916F915F914F913F912F910F90D7
:100AF0000BBE0F900FBE0F901F9018951F920F9274
:100B00000FB60F9211240BB60F922F933F934F9372
:100B10005F936F937F938F939F93AF93BF93EF9365
:100B2000FF93E0910802F09109021995FF91EF916E
:100B3000BF91AF919F918F917F916F915F914F91F5
:100B40003F912F910F900BBE0F900FBE0F901F90F3
:100B500018951F920F920FB60F9211240BB60F9299
:100B60002F933F934F935F936F937F938F939F93B5
:100B7000AF93BF93EF93FF93E0910602F0910702CA
:100B80001995FF91EF91BF91AF919F918F917F91B7
:100B90006F915F914F913F912F910F900BBE0F90EE
:100BA0000FBE0F901F9018951F920F920FB60F92C5
:100BB00011240BB60F922F933F934F935F936F9334
:100BC0007F938F939F93AF93BF93EF93FF93E091A6
:100BD0000402F09105021995FF91EF91BF91AF9139
:100BE0009F918F917F916F915F914F913F912F9145
:100BF0000F900BBE0F900FBE0F901F901895833073
:100C000071F120F48230C1F080E008958231C9F1A1
:100C10008331D1F770931902609318028DE194E04B
:100C20009093090280930802809169008F7C806113
:100C300080936900EA9A11C07093110260931002C8
:100C400085E394E0909301028093000280916A0012
:100C50008C7F816080936A00EC9A81E008957093A4
:100C60001302609312028FE294E090930302809348
:100C7000020280916A00837F846080936A00ED9A0B
:100C8000ECCF70931B0260931A0287E194E090937B
:100C90000B0280930A02809169008F7380648093B5
:100CA0006900EB9ADACF0F931F93CF93DF93EC0198
:100CB000062F142F62E0802F0E94440262E0812FF1
:100CC0000E944402802F90E0FC01EE52FE4FE4911E
:100CD000F0E0EE0FFF1FE854FE4FA591B491B983E9
:100CE000A883FC01E85EFD4F24912C83812F90E0C6
:100CF000FC01EE52FE4FE491F0E0EE0FFF1FE854CE
:100D0000FE4F459154915B834A83FC01E85EFD4FA1
:100D1000E491ED831F82188619861A868BE39FE182
:100D20000197F1F78C91282391E009F490E0DA0122
:100D30008C91E82309F092609E83BE01802F0E946F
:100D4000FF058B87BE01812F0E94FF059B85890FC0
:100D50008B87DF91CF911F910F910895789484B57F
:100D6000826084BD84B5816084BD85B5826085BDA7
:100D700085B5816085BD80916E00816080936E0035
:100D80001092810080918100826080938100809127
:100D900081008160809381008091800081608093D8
:100DA00080008091B10084608093B1008091B00098
:100DB00081608093B0008091910082608093910067
:100DC000809191008160809391008091900081607A
:100DD000809390008091A10082608093A100809117
:100DE000A10081608093A1008091A0008160809328
:100DF000A0008091210182608093210180912101D6
:100E00008160809321018091200181608093200185
:100E100080917A00846080937A0080917A00826069
:100E200080937A0080917A00816080937A0080912B
:100E30007A00806880937A001092C10060E086E3B7
:100E40000E94440260E087E30E94440260E088E37D
:100E50000E94440260E089E30E94440260E08AE369
:100E60000E94440260E08BE30E94440260E08CE355
:100E70000E94440260E08DE30E94440261E089E147
:100E80000E94440261E087E10E94440261E08BE13C
:100E90000E94440261E088E00E94440261E08DE12A
:100EA0000E94440261E08FE10E94440261E081E21D
:100EB0000E94440261E089E00E94440200E010E0E8
:100EC000BB24B39486E30E94ED013C0190935D0244
:100ED00080935C0287E30E94ED016C0190935B02BA
:100EE00080935A0288E30E94ED017C01909359029D
:100EF0008093580289E30E94ED01EC019093570220
:100F0000809356028AE30E94ED018BE30E94ED017B
:100F10008CE30E94ED018DE30E94ED0181E06816F3
:100F2000710471F4CA94CD2829F4209709F02AC1DC
:100F30000E943B040115110529F20E940000C2CF56
:100F40006728C1F7CD28B1F7EF28A1F7CD2B91F78E
:100F500080915502811130C0F89410925002109285
:100F6000510210925202109253027894F894109207
:100F70004402109245021092460210924702789461
:100F80001092390210923A0210923B0210923C02E7
:100F900010923502109236021092370210923802E7
:100FA0000E945703609331027093320280933302A0
:100FB00090933402B092550280915402823008F02E
:100FC000DDC0F89489E492E00E94D503809150023C
:100FD00090915102A0915202B09153027894809363
:100FE0002D0290932E02A0932F02B0933002809195
:100FF0004802823008F0C4C0F8948DE392E00E9469
:10100000D503409044025090450260904602709093
:10101000470278944092290250922A0260922B0251
:1010200070922C020E9457036B017C01C092250232
:10103000D0922602E0922702F092280280912D029F
:1010400090912E02A0912F02B0913002409139026E
:1010500050913A0260913B0270913C0284179507CF
:10106000A607B70741F08093390290933A02A09304
:101070003B02B0933C028091350290913602A091E0
:101080003702B091380284159505A605B70541F0E1
:1010900040923502509236026092370270923802C6
:1010A000609135027091360280913702909138023A
:1010B0000E94BE0923EC3DE84CE055E40E944A0939
:1010C0009B01AC010E94D90823EC35EF48E450E4C1
:1010D0000E946E0A26E636E646E550E40E946E0A55
:1010E00020E030E040E951E40E94450987FD28C036
:1010F0006091390270913A0280913B0290913C02DA
:101100000E94BE0923EC3DE84CE055E40E944A09E8
:101110009B01AC010E94D90823EC35EF48E450E470
:101120000E946E0A26E636E646E550E40E946E0A04
:1011300020E030E040E951E40E94450987FF16C0F5
:101140000E943B048091310290913202A0913302BF
:10115000B0913402C81AD90AEA0AFB0AC11485E31D
:10116000D8068CE0E806F10408F4E4CE0E94B3034C
:101170000E947C0390E080E00E94E30AF89426CF6E
:10118000F8943FCFEA94EF2809F0D4CE219709F0E4
:10119000D1CE0E94B303CECE42E163E189E492E076
:1011A0000E94530643E062E08DE392E00C94530604
:1011B0005058BB27AA270E94F0080C94340A0E94BA
:1011C000260A38F00E942D0A20F039F49F3F19F4C6
:1011D00026F40C94230A0EF4E095E7FB0C941D0A08
:1011E000E92F0E94450A58F3BA176207730784076C
:1011F000950720F079F4A6F50C94670A0EF4E095B3
:101200000B2EBA2FA02D0B01B90190010C01CA01C0
:10121000A0011124FF27591B99F0593F50F4503E6B
:1012200068F11A16F040A22F232F342F4427585F5D
:10123000F3CF469537952795A795F0405395C9F775
:101240007EF41F16BA0B620B730B840BBAF091502D
:10125000A1F0FF0FBB1F661F771F881FC2F70EC0CC
:10126000BA0F621F731F841F48F48795779567959F
:10127000B795F7959E3F08F0B0CF9395880F08F08B
:101280009927EE0F9795879508950E94F90908F41C
:1012900081E008950E945E090C94340A0E942D0A90
:1012A00058F00E94260A40F029F45F3F29F00C9480
:1012B0001D0A51110C94680A0C94230A0E94450AD5
:1012C00068F39923B1F3552391F3951B550BBB2775
:1012D000AA2762177307840738F09F5F5F4F220FBA
:1012E000331F441FAA1FA9F335D00E2E3AF0E0E8B1
:1012F00032D091505040E695001CCAF72BD0FE2FFB
:1013000029D0660F771F881FBB1F2617370748078E
:10131000AB07B0E809F0BB0B802DBF01FF27935846
:101320005F4F3AF09E3F510578F00C941D0A0C94E3
:10133000680A5F3FE4F3983ED4F386957795679506
:10134000B795F7959F5FC9F7880F911D969587957B
:1013500097F90895E1E0660F771F881FBB1F62179A
:1013600073078407BA0720F0621B730B840BBA0B58
:10137000EE1F88F7E0950895E89409C097FB3EF4C6
:1013800090958095709561957F4F8F4F9F4F9923D2
:10139000A9F0F92F96E9BB279395F6958795779550
:1013A0006795B795F111F8CFFAF4BB0F11F460FF10
:1013B0001BC06F5F7F4F8F4F9F4F16C0882311F068
:1013C00096E911C0772321F09EE8872F762F05C07C
:1013D000662371F096E8862F70E060E02AF09A9517
:1013E000660F771F881FDAF7880F9695879597F90C
:1013F0000895990F0008550FAA0BE0E8FEEF1616A6
:101400001706E807F907C0F012161306E407F507F8
:1014100098F0621B730B840B950B39F40A2661F06C
:10142000232B242B252B21F408950A2609F4A1400F
:10143000A6958FEF811D811D089597F99F6780E81C
:1014400070E060E008959FEF80EC089500240A9416
:101450001616170618060906089500240A9412168F
:101460001306140605060895092E0394000C11F4C2
:10147000882352F0BB0F40F4BF2B11F460FF04C06F
:101480006F5F7F4F8F4F9F4F089557FD9058440FC8
:10149000551F59F05F3F71F04795880F97FB991FD3
:1014A00061F09F3F79F08795089512161306140690
:1014B000551FF2CF4695F1DF08C01616170618061D
:1014C000991FF1CF86957105610508940895E894F8
:1014D000BB2766277727CB0197F908950E94810AD9
:1014E0000C94340A0E94260A38F00E942D0A20F03B
:1014F000952311F00C941D0A0C94230A11240C94CA
:10150000680A0E94450A70F3959FC1F3950F50E059
:10151000551F629FF001729FBB27F00DB11D639FA5
:10152000AA27F00DB11DAA1F649F6627B00DA11D4B
:10153000661F829F2227B00DA11D621F739FB00DF1
:10154000A11D621F839FA00D611D221F749F332761
:10155000A00D611D231F849F600D211D822F762FFA
:101560006A2F11249F5750409AF0F1F088234AF0D7
:10157000EE0FFF1FBB1F661F771F881F9150504043
:10158000A9F79E3F510580F00C941D0A0C94680A3F
:101590005F3FE4F3983ED4F3869577956795B795CA
:1015A000F795E7959F5FC1F7FE2B880F911D9695E4
:1015B000879597F90895EE0FFF1F881F8BBF07903F
:0A15C000F691E02D1994F894FFCF86
:1015CA00B203B203B203B203B203B203B203B20369
:00000001FF
